:020000040800F2
:10000000581B002081010008AD3B0008C5360008E0
:1000100000000000000000000000000000000000E0
:10002000000000000000000000000000FD3C00088F
:100030000000000000000000B13B0008513D000836
:100040009301000893010008930100089301000840
:100050009301000893010008930100089301000830
:100060009301000893010008930100089301000820
:100070009301000893010008930100089301000810
:100080009301000893010008930100089301000800
:1000900093010008930100089301000893010008F0
:1000A00093010008930100089301000893010008E0
:1000B00093010008930100089301000893010008D0
:1000C00000F002F800F04CF812A030C808382418EC
:1000D0002D18AC4201D100F043F80FCCA246AB463C
:1000E0000CA730CF2D1B083F3F197C427F1E544484
:1000F0002D090426F441641EAC4201D300F030F80F
:100100000126334200D0FB1A3343984754465D46DC
:10011000DFE70000A8460000C8460000103A02D3FE
:1001200078C878C1FAD8520701D330C830C101D598
:1001300004680C6070470000704700000023002432
:1001400000250026103A01D378C1FBD8520700D30E
:1001500030C100D50B6070471FB51FBD10B510BD75
:1001600000F08BF91146FFF7F7FF04F0C7FA00F033
:10017000A3F903B4FFF7F2FF03BC00F0A9F90000F4
:100180000748804707480047FEE7FEE7FEE7FEE72F
:10019000FEE7FEE704480549054A064B70470000A4
:1001A000C93D0008C100000858020020581B00206B
:1001B0005817002058170020FEB5044610460D467B
:1001C000184373D0A6468C460020A41A01469D41D0
:1001D00067D36646002701243D46B61A9D4102D3E7
:1001E00013463A462124654676462F04360C3E4394
:1001F0002D0CB61A9D4104D3150C1B042B4312047D
:100200001034654676462F06360A3E432D0AB61A46
:100210009D4104D3150E1B022B4312020834654680
:1002200076462F0736093E432D09B61A9D4104D361
:10023000150F1B012B431201241D65467646AF079F
:10024000B6083E43AD08B61A9D4104D3950F9B00F6
:100250002B439200A41C65467646EF0776083E4382
:100260006D08B61A9D411AD392185B41641C16E0C2
:100270000018764665464941B71A9D4101910090A4
:1002800009D36046B11A98418E4684460098019978
:100290000025401C6941DD0752082A435B08641EA3
:1002A000E6D57246634603B0F0BDFFE7204628431B
:1002B00007D00020C0430146C046C04622462B4618
:1002C000F1E700200146F7E701E004C0091F042917
:1002D000FBD28B0701D50280801CC90700D00270B9
:1002E000704700290BD0C30702D00270401C491E82
:1002F000022904D3830702D50280801C891EE3E70C
:100300000022EEE70022DFE7002203098B422CD314
:10031000030A8B4211D300239C464EE003460B4355
:100320003CD4002243088B4231D303098B421CD3B7
:10033000030A8B4201D394463FE0C3098B4201D3A9
:10034000CB01C01A524183098B4201D38B01C01AE1
:10035000524143098B4201D34B01C01A5241030958
:100360008B4201D30B01C01A5241C3088B4201D307
:10037000CB00C01A524183088B4201D38B00C01AB4
:10038000524143088B4201D34B00C01A5241411ADB
:1003900000D201465241104670475DE0CA0F00D0BE
:1003A0004942031000D3404253409C4600220309B7
:1003B0008B422DD3030A8B4212D38901FC2212BA3D
:1003C000030A8B420CD3890192118B4208D3890115
:1003D00092118B4204D389013AD0921100E089092D
:1003E000C3098B4201D3CB01C01A524183098B420E
:1003F00001D38B01C01A524143098B4201D34B01F7
:10040000C01A524103098B4201D30B01C01A524159
:10041000C3088B4201D3CB00C01A524183088B42E0
:1004200001D38B00C01A5241D9D243088B4201D369
:100430004B00C01A5241411A00D2014652411046A7
:1004400063465B1001D34042002B00D54942704700
:1004500063465B1000D3404201B50549002802DC29
:10046000491C084000E00846C046C04602BD00BF27
:10047000FFFFFF7F704770477047754600F024F814
:10048000AE46050069465346C008C000854618B010
:1004900020B5FFF77FFE60BCB64600260027C0C52A
:1004A000C0C5C0C5C0C5C0C5C0C5C0C5C0C5403D2C
:1004B000490849008D46704710B50446C046C046FD
:1004C0002046FFF756FE10BD004870471000002080
:1004D00001491820ABBEFEE726000200704772B645
:1004E000FFE7FEE780B58AB00690059104A90020D9
:1004F00008700290069800690121C907884206D059
:10050000FFE706980069BB49884201D1FFE700E098
:10051000FFE7FFE706985421405C012804D1FFE77C
:1005200007A90220087060E106995422012088542E
:10053000FFE7FFE70698006803F0FFF8002800D007
:1005400040E105984068022800D1EDE00698006976
:100550000121C907884206D0FFE706980069A5492E
:10056000884207D1FFE7069800680599096803F0FB
:10057000EDF874E00698016E059843681F22134059
:100580000F229A409143019100684002002808D14F
:10059000FFE7059800681F2189060840800E00903B
:1005A00041E00598006801BA0809974A10401140D7
:1005B000090141188808954A1040114089004118E6
:1005C0004808934A10401140490040180890089884
:1005D000002804D1FFE709A9202008701FE008982F
:1005E000410808438108084301090843010A0843F8
:1005F000010C0843C0434108854A1140411A834A0F
:1006000008461040890811404018010941187E48E9
:10061000014080484843000E09A90870FFE709A877
:1006200000780090FFE701980099059A52681F230F
:100630001A4091400843069908660598406880086A
:10064000401C0699C969884208D8FFE706980068E7
:10065000059A5168126803F097F8FFE7FFE70698DC
:100660000068059A1168926803F0A6F80598C078AA
:100670000006002857D5FFE75F4803F035F80390E0
:10068000059800685D49884221D1FFE703A880787A
:10069000000600281BD4FFE703990120C005014391
:1006A000554803F09DF85C4800685C49FFF72CFE54
:1006B00001460C2048430C300290FFE702980028C6
:1006C00004D0FFE70298401E0290F7E72AE0059861
:1006D00000684B4988420ED1FFE703A8C078C007E5
:1006E000002808D1FFE70399012000060143424892
:1006F00003F076F815E005980068424988420ED16B
:10070000FFE703A880784006002808D4FFE7039994
:10071000012080050143384803F062F800E0FFE75C
:10072000FFE7FFE7FFE74CE0069800690121C907F2
:10073000884206D0FFE7069800692E49884207D113
:10074000FFE7069800680599096803F00DF8FFE7D0
:100750000598C0780006002832D5FFE7264802F049
:10076000C3FF0390059800682449884208D1FFE739
:1007700003990120C0058143FE4803F031F81EE0D3
:10078000059800681E49884208D1FFE703990120B7
:1007900000068143F74803F023F80FE0059800684E
:1007A0001849884208D1FFE7039901208005814359
:1007B000F04803F015F800E0FFE7FFE7FFE7FFE789
:1007C000FFE708E00699886D20221043886504A998
:1007D00001200870FFE7FFE70699542200208854A3
:1007E000FFE7049807A90870FFE707A800780AB098
:1007F00080BDC0460400008008270140000800AC0E
:10080000002000B4001000B00F0F0F0F333333334C
:10081000555555550101010100000020400D030010
:1008200080B58AB0089007A900200870069005904E
:1008300003900898002804D1FFE709A90120087057
:100840008BE108983C21405C012801D1FFE7FFE7DC
:1008500008980069002809D0FFE70898006901217D
:100860004905884201D1FFE7FFE7FFE70898806D5F
:1008700000280AD1FFE7089800F080F908990020C5
:10088000C865089954228854FFE70898006802F068
:100890004AFF002816D1FFE70898006802F014FF0D
:1008A000B0480068B049FFF72FFD4000801C03905E
:1008B000FFE70398002804D0FFE70398401E039049
:1008C000F7E7FFE70898006802F02DFF00280DD138
:1008D000FFE70899886D102210438865089AD16D4A
:1008E00001200143D16507A90870FFE70898006857
:1008F00002F023FF04900898806DC006002800D500
:100900001EE10498002800D01AE10898806D0221A9
:1009100008430121090288430899886508980068FE
:1009200002F0F9FE002800D0B0E008988168027E4D
:1009300092031143427ED2031143827E520311433C
:10094000026B531E9A4112031143C2681143029174
:10095000C07C0006002807D5FFE708980069012140
:10096000C9078843019003E0012040050190FFE79B
:1009700002990198014308982C22805C40000143B1
:1009800006980843069008982021405C012817D15A
:10099000FFE70898807E002806D1FFE7069801212E
:1009A0000904084306900AE00899886D2022104344
:1009B00088650899C86D01221043C865FFE7FFE705
:1009C0000898406A00280BD0FFE70898416A072280
:1009D00092011140806A0143069808430690FFE7A0
:1009E00008980068C068614908400699084308995A
:1009F0000968C86008984168032292071140C06CDA
:100A0000014305980843059008983C21405C012863
:100A100011D1FFE7089948680322920710400A6C39
:100A200010434A6C1043896C08430599084301211F
:100A300008430590FFE70898006800694C490840A2
:100A400005990843089909680861089840680321D6
:100A50008907884219D0FFE7089840680121890773
:100A6000884212D0FFE7089840680121C9078842F0
:100A70000BD0FFE73F4908680F2293049843089A78
:100A800052681A4080180860FFE7FFE70899086875
:100A90004A6B002102F0B2FE089908688A6B364959
:100AA00002F0ACFE08980069002808D1FFE708981A
:100AB0000168886A0F22D2431043886219E00898BF
:100AC000006901214905884211D1FFE708980068B3
:100AD000806A0899C8698000021F1C2002400F200C
:100AE000C04390400A6E10430968886200E0FFE747
:100AF000FFE708980068002102F0FFFD0899496BA4
:100B000088420CD1FFE708990020C8650898806DDD
:100B10000121084302218843089988650FE008985D
:100B2000806D102108430221884308998865089A3E
:100B3000D16D01200143D16507A90870FFE708E0E6
:100B40000899886D10221043886507A90120087054
:100B5000FFE7079809A90870FFE709A800780AB01D
:100B600080BDC04600000020400D03000102DEFFF2
:100B700002FCFF1F0827014004FFFF7F80B594B0EF
:100B8000139002A84421FFF7BDFB13980068104999
:100B900088421BD1FFE701208003029000201190C2
:100BA00002A801F07BF9002803D0FFE7FFF797FCCC
:100BB000FFE7FFE707480268012109050A430260D1
:100BC0000068084001900198FFE7FFE714B080BD7E
:100BD000002401406010024080B584B0039000F012
:100BE000B5F90290039801900198401C002806D0A6
:100BF000FFE709480168019840180190FFE7FFE707
:100C000000F0A4F90299401A0199884201D2FFE745
:100C1000F6E704B080BDC046040000208CB00B9005
:100C20000A9100200990FFE70A9800680999C840D6
:100C3000002800D15DE10A980068099A01219140DD
:100C4000084008900898002800D14EE10A984068B2
:100C500003210840012807D0FFE70A9840680321D4
:100C6000084002282CD1FFE70B988068079009986C
:100C70004000032181400798884307900A98C16883
:100C800009984000814007980843079007980B99FE
:100C900088600B9840680790099801218140079867
:100CA000884307900A984068102108400109099874
:100CB000814007980843079007980B994860FFE721
:100CC0000A98406803210840032816D0FFE70B98D4
:100CD000C068079009984000032181400798884325
:100CE00007900A9881680998400081400798084356
:100CF000079007980B99C860FFE70A98406803219E
:100D00000840022820D1FFE70B980999C9088900FB
:100D10004018006A079009984007C00E0F218140D3
:100D20000798884307900A98016909984007C00E00
:100D3000814007980843079007980B99099AD208B1
:100D4000920089180862FFE70B98006807900998DD
:100D50004100032002468A400799914307910A996E
:100D6000496801400998400081400798084307906E
:100D700007980B9908600A9880798007002800D1AD
:100D8000B2E00998032188435B49405807900998CD
:100D90008007C00E0F2181400798884307900B9869
:100DA00005210907884203D1FFE70020069038E0BB
:100DB0000B985249884203D1FFE7012005902DE0AE
:100DC0000B984F49884203D1FFE70220049022E0AC
:100DD0000B984C49884203D1FFE70320039017E0AA
:100DE0000B984949884203D1FFE7042002900CE0A8
:100DF0000B99464A0520062300939142019001D0A9
:100E00000098019001980290FFE702980390FFE795
:100E100003980490FFE704980590FFE70598069073
:100E2000FFE7069909988007C00E8140079808439C
:100E3000079007980999032291432F4A8850344814
:100E40000068079008990798884307900A98807966
:100E5000C006002805D5FFE70899079808430790C2
:100E6000FFE707982A4908602A4800680790089910
:100E70000798884307900A9880798006002805D54E
:100E8000FFE70899079808430790FFE7079821496B
:100E900008602148006807900899079888430790E0
:100EA0000A9880798007002805D5FFE708990798F8
:100EB00008430790FFE7079817490860174800683C
:100EC000079008990798884307900A988079C00787
:100ED000002805D0FFE70899079808430790FFE727
:100EE00007980E490860FFE7FFE70998401C099042
:100EF0009AE60CB07047C0466018024000040050EB
:100F000000080050000C0050001000500014005069
:100F10000018024004180240841802408018024061
:100F200083B0029001A80180684602700078002812
:100F300005D0FFE701A800880299886104E001A8B4
:100F4000008802998862FFE703B07047C2480068D2
:100F50007047C04610B583B00190009101984121BF
:100F6000405C202839D1FFE7FFE701984021405C31
:100F7000012804D1FFE702A90220087031E001999D
:100F8000402201208854FFE7FFE7019941222420F5
:100F90008854019801680868012398430860019803
:100FA000016808681C03A0430860009C0198016860
:100FB00008682043086001980168086818430860C1
:100FC000019920208854FFE701994022002088548D
:100FD000FFE702A90020087003E002A902200870C0
:100FE000FFE702A8007803B010BD84B00290019121
:100FF00002984121405C20283FD1FFE7FFE702989B
:101000004021405C012804D1FFE703A902200870B9
:1010100037E00299402201208854FFE7FFE7029958
:1010200041222420885402980168086801239843CB
:101030000860029800680068009000980F2109027B
:10104000884300900198010200980843009000989E
:1010500002990968086002980168086818430860E6
:10106000029920208854FFE70299402200208854EA
:10107000FFE703A90020087003E003A9022008701D
:10108000FFE703A8007804B07047000080B582B085
:1010900000900098002804D1FFE701A90120087002
:1010A0007EE000984121405C002808D1FFE70099CC
:1010B000402200208854009800F078F8FFE700995B
:1010C0004122242088540098016808680122904336
:1010D0000860009948680F231B0698430968086157
:1010E000009801688868D203904388600098C068BF
:1010F000012808D1FFE7009988680122D203104334
:101100000968886007E000998868212292021043EC
:1011100009688860FFE70098C068022808D1FFE7E7
:101120000098016848680122D2021043486007E035
:101130000098016848680122D20290434860FFE7A6
:10114000009801684868184A104348600098016890
:10115000C8680122D3039843C860009908694B69A5
:1011600018438B691B0218430968C8600099C86955
:101170000B6A184309680860009801680868104302
:101180000860009900204864009A41232021D1542E
:101190000099086300994222885401A90870FFE76A
:1011A00001A8007802B080BD0080000280B59AB02E
:1011B000199000201890179016901590149003A87D
:1011C0004421FFF79FF8199800681C49884232D1E2
:1011D000FFE7202003900020099003A800F05EFEA6
:1011E000002803D0FFE7FFF77AF9FFE7FFE714488D
:1011F000026802210A4302600068084002900298D7
:10120000FFE7C02014901220159000201690179030
:10121000042018900B4814A9FFF700FDFFE747488A
:101220000268012149050A430260006808400190F4
:101230000198FFE7FFE71AB080BDC04600540040A8
:101240004C100240000400502D4802680249086812
:10125000801808607047C0465002002080B582B0F8
:1012600001A900200870032000F00EF8002804D027
:10127000FFE701A90120087002E000F045F8FFE750
:1012800001A8007802B080BD80B584B0039002A9A7
:10129000002008701A480068002829D0FFE763483A
:1012A00000680190164801687D20C000FFF72CF807
:1012B00001460198FFF728F802F086F8002812D1BD
:1012C000FFE70398032809D8FFE703990022D043DA
:1012D00000F038F803980B49086003E002A90120E8
:1012E0000870FFE703E002A901200870FFE703E0B0
:1012F00002A901200870FFE702A8007804B080BDB1
:10130000040000200800002082B0FFE70B480268BC
:10131000012109070A430260006808400190019812
:10132000FFE7FFE70648026801210A430260006800
:10133000084000900098FFE702B070475810024044
:101340006010024080B584B0034603A80370029188
:10135000019200214056029903F08EF904B080BD3D
:1013600080B584B0029002980121490288423FD1A1
:10137000FFE734480068032149020840012149027F
:10138000884234D0FFE72F49086803225202904375
:101390000122520280180860244801683220484324
:1013A0002349FEF7B1FF401C0190FFE72148016887
:1013B000002049050029009005D5FFE70198411E4E
:1013C00088410090FFE70098C007002804D0FFE79D
:1013D0000198401E0190E9E7164800684005002882
:1013E00004D5FFE703A9032008701AE0FFE714E023
:1013F00014480068032149020840012189028842FB
:101400000AD0FFE70F4908680322520290430122E5
:10141000920280180860FFE7FFE703A90020087028
:10142000FFE703A8007804B080BDC046000000209C
:1014300040420F0014700040024800680321490236
:10144000084070470070004080B588B0079055484C
:1014500001687F2212021140090A049101680322E7
:10146000114006910068702108400009401C059059
:101470004D4800680007002806D5FFE74A48006885
:10148000F0210840019007E0484800680F21090258
:10149000084000090190FFE70198000902900298B6
:1014A0000C2803D3FFE70B200290FFE7069800907B
:1014B000012811D0FFE70098022804D0FFE7009828
:1014C000032815D01DE005993B48FEF71DFF014696
:1014D00004984843039020E0029881003548405822
:1014E0000599FEF711FF014604984843039014E064
:1014F00005992F48FEF708FF0146049848430390DA
:101500000BE0029881002B4840580599FEF7FCFE3D
:101510000146049848430390FFE722480068C0034F
:1015200000280DD5FFE703981E4909681F225204C1
:101530001140490C491CFEF7E7FE0799086003E0DB
:10154000079900200860FFE716480068C0010028DE
:101550000DD5FFE703981349096807225206114089
:10156000490E491CFEF7D0FE0799486003E0079931
:1015700000204860FFE70B480068C00000280AD53B
:10158000FFE7039807490968490F491CFEF7BCFEAD
:101590000799886003E0079900208860FFE708B09A
:1015A00080BDC0460C100240001002409410024062
:1015B00000093D00644700080024F40080B59AB09B
:1015C00019900020189019980121C903884246D12A
:1015D000FFE7824800680321090208401790179826
:1015E00012900121090288420CD0FFE712980121D4
:1015F0004902884211D0FFE712980321090288426C
:1016000020D029E0754800688007002804D5FFE74E
:101610000120C0031890FFE71FE0714800688007B1
:1016200000280ED5FFE76E4800684007002803D564
:10163000FFE7FA20189003E07D2000021890FFE7F2
:10164000FFE70AE0674800688003002803D5FFE74A
:1016500065481890FFE700E0FFE700F00BFC1998E1
:101660001190012853D0FFE71198022800D184E09F
:101670001198042800D150E11198082800D110E1F8
:101680001198102800D1D0E01198202800D1A9E1AC
:101690001198402800D1D0E11198802800D1F7E1BD
:1016A000119801210902884200D13EE211980121DE
:1016B0004902884200D185E21198012189028842BD
:1016C00000D1D5E211980121C902884200D1F9E286
:1016D000119801210903884200D11DE311980121CD
:1016E0004903884200D16DE31198012189038842A2
:1016F00000D147E1119801210904884200D190E00E
:10170000119801214904884200D18AE0B0E33748AA
:1017100000680321084017901798109003282AD8D2
:101720001098810001A040588746C0463D17000828
:10173000451700084D1700086117000800F0AAFEC1
:10174000189019E000F0B8FE189015E025480068E0
:101750004005002803D5FFE725481890FFE70BE078
:101760001E4800688007002804D5FFE70120C00359
:101770001890FFE700E0FFE77BE31C4800680C21BE
:101780000840179017980F900C2848D80F988100A0
:1017900001A040588746C046CD1700081F18000812
:1017A0001F1800081F180008D51700081F18000888
:1017B0001F1800081F180008F51700081F18000858
:1017C0001F1800081F1800080918000800F062FE22
:1017D000189025E000F070FE189021E09010024073
:1017E000941002400010024048E8010088100240B6
:1017F0000024F400FC4800684005002803D5FFE7FA
:10180000FA481890FFE70BE0F948006880070028C5
:1018100004D5FFE70120C0031890FFE700E0FFE7D1
:1018200027E300F037FE189023E3F2480068032115
:1018300089020840179017980E90002812D0FFE7F1
:101840000E9801218902884210D0FFE70E980121ED
:10185000C90288420ED0FFE70E9803218902884210
:1018600012D01CE000F016FE189019E000F024FEE3
:10187000189015E0DC4800684005002803D5FFE714
:10188000DA481890FFE70BE0D94800688007002885
:1018900004D5FFE70120C0031890FFE700E0FFE751
:1018A000E7E2D4480068032109020840179017981E
:1018B0000D90002812D0FFE70D98012109028842FF
:1018C00010D0FFE70D980121490288420ED0FFE7B2
:1018D0000D9803210902884212D01CE000F0DAFDC5
:1018E000189019E000F0E8FD189015E0BE48006877
:1018F0004005002803D5FFE7BC481890FFE70BE040
:10190000BB4800688007002804D5FFE70120C0031A
:101910001890FFE700E0FFE7ABE2B6480068C0219F
:101920000840179017980C9000280CD0FFE70C98EF
:1019300040280CD0FFE70C9880280CD0FFE70C98CB
:10194000C02812D01CE000F0A5FD189019E000F0AE
:10195000B3FD189015E0A44800684005002803D5A1
:10196000FFE7A2481890FFE70BE0A1480068800756
:10197000002804D5FFE70120C0031890FFE700E02E
:10198000FFE776E29B4800680321090708401790AB
:1019900017980B9000280CD0FFE70B98012109073E
:1019A000884217D0FFE70B9801214907884204D0ED
:1019B00016E000F081FD189013E08B4800684005A8
:1019C000002803D5FFE78948189002E0002018900E
:1019D000FFE706E014A8FFF737FD1498189000E021
:1019E000FFE746E283480068032109030840179097
:1019F00017980A9000280CD0FFE70A9801210903E4
:101A000088420AD0FFE70A9801214903884208D09A
:101A100011E000F03FFD18900EE000F04DFD189031
:101A20000AE0714800684005002803D5FFE76F48C9
:101A30001890FFE700E0FFE71BE26E480068032113
:101A40000904084017901798099000280CD0FFE768
:101A500009980121090488420AD0FFE70998012169
:101A60004904884208D011E000F014FD18900EE0FF
:101A700000F022FD18900AE05B480068400500284D
:101A800003D5FFE759481890FFE700E0FFE7F0E1D2
:101A9000FA480068032189040840179017980890B5
:101AA000002812D0FFE7089801218904884210D04D
:101AB000FFE708980121C90488421FD0FFE7089872
:101AC00003218904884223D02DE000F0E3FC189024
:101AD0002AE0EC480068800700280ED5FFE7E948B7
:101AE00000684007002803D5FFE7FA20189003E0BC
:101AF0007D2000021890FFE7FFE715E0E04800684E
:101B00004005002803D5FFE7E3481890FFE70BE006
:101B1000E04800688007002804D5FFE70120C003E3
:101B20001890FFE700E0FFE7A3E1D4480068032135
:101B300009050840179017980790002812D0FFE772
:101B4000079801210905884210D0FFE70798012175
:101B5000490588421FD0FFE70798032109058842FD
:101B600023D02DE000F096FC18902AE0C5480068CC
:101B7000800700280ED5FFE7C2480068400700280C
:101B800003D5FFE7FA20189003E07D2000021890AB
:101B9000FFE7FFE715E0BA4800684005002803D5D5
:101BA000FFE7BD481890FFE70BE0BA4800688007E0
:101BB000002804D5FFE70120C0031890FFE700E0EC
:101BC000FFE756E1AD4800680321890508401790FA
:101BD0001798069000281BD0FFE706980121890579
:101BE000884219D008E0C046001002400024F400EA
:101BF000901002408810024006980121C9058842D1
:101C00001FD0FFE7069803218905884223D02DE0E5
:101C100000F040FC18902AE09A48006880070028ED
:101C20000ED5FFE7974800684007002803D5FFE777
:101C3000FA20189003E07D2000021890FFE7FFE7EC
:101C400015E08F4800684005002803D5FFE792485B
:101C50001890FFE70BE08F4800688007002804D544
:101C6000FFE70120C0031890FFE700E0FFE700E175
:101C700082480068012109060840179017980590CE
:101C8000002806D0FFE7059801210906884211D0F7
:101C900016E07F4800684004400F002804D1FFE7A9
:101CA00000F0F8FB189004E000F0F4FB40001890FE
:101CB000FFE706E014A8FFF7C7FB1598189000E0AF
:101CC000FFE7D6E06D4800680121490608401790FB
:101CD00017980490002806D0FFE7049801214906D0
:101CE000884211D016E06A4800684004400F00287E
:101CF00004D1FFE700F0CEFB189004E000F0CAFB2F
:101D000040001890FFE706E014A8FFF79DFB159828
:101D1000189000E0FFE7ACE058480068032189060E
:101D20000840179017980390002846D0FFE70398C3
:101D30000121890688420FD0FFE703980121C906D7
:101D4000884234D0FFE7039803218906884237D1BF
:101D5000FFE74E48189034E04948006880070028A3
:101D600024D5FFE7464800680007002806D5FFE7AE
:101D700043480068F0210840029007E041480068AD
:101D80000F210902084000090290FFE702980009AC
:101D9000139013980C2803D3FFE70B201390FFE751
:101DA00013988100384840581890FFE709E014A8BC
:101DB000FFF74AFB1598189003E00020189000E008
:101DC000FFE756E02D480068032189060840179078
:101DD00017980190002846D0FFE701980121890655
:101DE00088420FD0FFE701980121C906884234D00C
:101DF000FFE7019803218906884237D1FFE723488E
:101E0000189034E01E4800688007002824D5FFE7BA
:101E10001B4800680007002806D5FFE7184800683F
:101E2000F0210840009007E0164800680F210902E1
:101E3000084000090090FFE70098000913901398EC
:101E40000C2803D3FFE70B201390FFE713988100C2
:101E50000D4840581890FFE709E014A8FFF7F4FA7E
:101E60001598189003E00020189000E0FFE700E0CC
:101E7000FFE7FFE718981AB080BDC04688100240FF
:101E8000001002409410024064470008006CDC021D
:101E900008100240901002400024F40080B588B081
:101EA000079004A90020087003A9087007984078DB
:101EB0000006002800D49DE002A900200870E9482F
:101EC0000068C000002810D4FFE7FFE7E54802687B
:101ED000012109070A430260006808400190019847
:101EE000FFE702A901200870FFE7DF490868012227
:101EF000120210430860FFF729F80590FFE7DA485F
:101F00000068C00500280CD4FFE7FFF71FF805990B
:101F1000401A032804D3FFE704A90320087000E057
:101F2000EDE704A80078002853D1FFE7CF48006808
:101F300003210902084006900698002817D0FFE701
:101F400006980799096C884211D0FFE7C7490868CD
:101F500003221202904306900868012212041043E3
:101F6000086008689043086006980860FFE706A8C4
:101F70000078C007002818D0FFE7FEF7E7FF0590BC
:101F8000FFE7BA480068800700280DD4FFE7FEF796
:101F9000DDFF0599401AB649884204D3FFE704A93A
:101FA0000320087000E0ECE7FFE704A800780028B1
:101FB0000AD1FFE7AD490868032212029043079A4D
:101FC000126C1043086003E0049803A90870FFE74F
:101FD00003E0049803A90870FFE702A8007801282D
:101FE00007D1FFE79F490868012212079043086064
:101FF000FFE7FFE707980078C007002809D0FFE750
:102000009C49086803229043079A5268104308606D
:10201000FFE7079800788007002809D5FFE7954972
:1020200008680C229043079A926810430860FFE703
:1020300007980078C00600280AD5FFE78D49086890
:10204000032292029043079A526910430860FFE707
:1020500007980078000700280AD5FFE78549086837
:10206000032212029043079A126910430860FFE7A7
:10207000079800784007002809D5FFE77D490868E0
:10208000C0229043079AD26810430860FFE7079880
:102090000078800600280AD5FFE776490868032201
:1020A00012039043079A926910430860FFE707986C
:1020B0000078400600280AD5FFE76E490868032229
:1020C00012049043079AD26910430860FFE707980B
:1020D0000078000600280AD5FFE766490868032251
:1020E00092049043079A126A10430860FFE707982A
:1020F0004078C00700280AD0FFE75E49086803223D
:1021000012059043079A526A10430860FFE7079848
:102110004078800700280AD5FFE75649086803225F
:1021200092059043079A926A10430860FFE7079868
:1021300040784006002818D5FFE70798C06B0121BA
:102140000907884207D1FFE74B49086801221204BA
:1021500010430860FFE747490868032212079043CD
:10216000079AD26B10430860FFE707984078C006D3
:10217000002818D5FFE70798406B0121C90688425F
:1021800007D1FFE73C4908680122120610430860A6
:10219000FFE738490868032292069043079A526B7A
:1021A00010430860FFE7079840788006002818D59C
:1021B000FFE70798806B0121C906884207D1FFE736
:1021C0002D4908680122120610430860FFE72949DB
:1021D0000868032292069043079A926B10430860A6
:1021E000FFE7079840784007002818D5FFE70798D1
:1021F000C06A01210906884207D1FFE71E49086825
:102200000122120610430860FFE71A4908680122FC
:1022100012069043079AD26A10430860FFE70798B6
:1022200040780007002818D5FFE70798006B0121C8
:102230004906884207D1FFE7F449086801221206DF
:1022400010430860FFE70B4908680122120690431B
:10225000079A126B10430860FFE703A8007808B0E4
:1022600080BDC046581002400070004090100240EF
:1022700089130000881002400C10024080B586B01F
:102280000490039103987C49096807221140884211
:1022900012D9FFE77848026807218A43039B1A4353
:1022A0000260006808400399884204D0FFE705A94E
:1022B00001200870DBE0FFE704980078C0070028E1
:1022C00000D182E00498406803280BD1FFE7D24890
:1022D00000688001002804D4FFE705A901200870E8
:1022E000C5E04EE00498406802280BD1FFE7CA48D9
:1022F00000688003002804D4FFE705A901200870C6
:10230000B5E03DE00498406800280BD1FFE7C248E3
:1023100000688007002804D4FFE705A901200870A1
:10232000A5E02CE00498406801280BD1FFE7BA48EB
:1023300000684005002804D4FFE705A901200870C3
:1023400095E01BE00498406804280BD1FFE7B348F0
:1023500000688007002804D4FFE705A90120087061
:1023600085E00AE0454800688007002804D4FFE7BC
:1023700005A9012008707AE0FFE7FFE7FFE7FFE724
:10238000FFE7A149086807229043049A5268104366
:102390000860FEF7DBFD0190FFE79B4800683821ED
:1023A000084004994968C90088420DD0FFE7FEF74C
:1023B000CDFD0199401A3349884204D3FFE705A9AE
:1023C0000320087053E0E8E7FFE7049800788007EF
:1023D00000280AD5FFE78C4908680F2212029043B3
:1023E000049A926810430860FFE70398224909683D
:1023F00007221140884212D2FFE71F4802680721D6
:102400008A43039B1A43026000680840039988428C
:1024100004D0FFE705A90120087028E0FFE7049831
:102420000078400700280AD5FFE7774908680722A7
:1024300012039043049AD26810430860FFE700F04B
:102440003BF8714909680F22120211400A0A0C492F
:10245000895C1F221140C8400D4908600320FEF727
:1024600013FF02A90870029805A90870FFE705A8E4
:10247000007806B080BDC0460020024090100240A7
:102480004C47000889130000014800687047C046A7
:102490000000002080B5FFF7F7FF5B4909680722BD
:1024A000120311400A0B0349895C1F221140C840E6
:1024B00080BDC0465C47000880B58CB000200B9002
:1024C0000A90514800683821084005904F4800683C
:1024D0000321084004900598002808D0FFE70598DC
:1024E00018282CD1FFE70498012828D1FFE74A4893
:1024F00000680007002808D4FFE7484800680F215B
:1025000009020840000A0B9005E043480068C0B289
:1025100000090B90FFE70B980C2803D3FFE700207E
:102520000B90FFE70B9881003D4840580B900598B1
:10253000002803D1FFE70B980A90FFE722E00598F7
:10254000082803D1FFE733480A901AE005981028BD
:1025500003D1FFE72E480A9012E00598202804D105
:10256000FFE77D2000020A9009E00598282804D1A1
:10257000FFE70120C0030A9000E0FFE7FFE7FFE765
:10258000FFE7FFE7059818283BD1FFE71F480168E0
:102590000322114008910068702108400009401C86
:1025A00006900898029001280ED0FFE702980228B2
:1025B00004D0FFE70298032803D006E015480390F3
:1025C00006E01348039003E0FFE70B980390FFE752
:1025D00003990E48019000687F2212021040000A01
:1025E00048430699FDF790FE01460198099100685D
:1025F000400F401C079009980799FDF785FE0A9047
:10260000FFE70A980CB080BD081002400C10024091
:1026100000093D000024F400001002409410024024
:102620006447000810B58AB00890FE480068382159
:1026300008400590FC480068032108400490089871
:102640000078C006002800D4FBE00598002808D0D8
:10265000FFE70598182800D09CE00498012800D0D6
:1026600098E0F4480068800700280AD5FFE708983A
:10267000C069002805D1FFE709A90120087000F012
:1026800014FC0898406A0190EA4800680007002896
:1026900006D5FFE7E7480068F0210840009007E012
:1026A000E54800680F210902084000090090FFE793
:1026B00001980099884224D9FFE70898406A01F000
:1026C00079FA002804D0FFE709A901200870ECE39B
:1026D000FFE7D84908680822104308600868F0221C
:1026E0009043089A526A10430860FFE7D34908688C
:1026F000FF2212029043089A126A120210430860E5
:1027000028E0FFE7CB490868082210430860086802
:10271000F0229043089A526A10430860FFE7C749C5
:102720000868FF2212029043089A126A12021043AC
:102730000860059800280CD1FFE70898406A01F06E
:1027400039FA002804D0FFE709A901200870ACE39A
:10275000FFE7FFE7FFF7B0FEB54909680F22120255
:1027600011400A0AB649895C1F221140C840B54988
:102770000860B5480068FEF787FD014606A80170AD
:102780000078002804D0FFE7069809A908708CE3B8
:10279000FFE755E00898C069002834D0FFE7A54955
:1027A0000868012210430860FEF7D0FB0790FFE79E
:1027B000A0480068800700280CD4FFE7FEF7C6FB9E
:1027C0000799401A032804D3FFE709A903200870DA
:1027D0006BE3EDE7FFE797490868082210430860BC
:1027E0000868F0229043089A526A10430860FFE795
:1027F00092490868FF2212029043089A126A120254
:10280000104308601BE08B49086801229043086070
:10281000FEF79CFB0790FFE78648006880070028CA
:102820000CD5FFE7FEF792FB0799401A032804D363
:10283000FFE709A90320087037E3EDE7FFE7FFE7AB
:10284000FFE708980078C007002877D0FFE70598D1
:10285000102808D0FFE70598182814D1FFE704983E
:10286000032810D1FFE7734800688003002809D5CA
:10287000FFE708984068002804D1FFE709A9012074
:10288000087012E359E0FFE7089840680121090445
:10289000884207D1FFE76749086801221204104304
:1028A000086015E00898406805210904884207D1AE
:1028B000FFE760490868052212041043086006E03B
:1028C0005C4908680522120490430860FFE7FFE7AF
:1028D000FFE708984068002817D0FFE7FEF736FBAF
:1028E0000790FFE753480068800300280CD4FFE7F7
:1028F000FEF72CFB0799401A652804D3FFE709A9C6
:1029000003200870D1E2EDE716E0FEF71FFB079009
:10291000FFE748480068800300280CD5FFE7FEF772
:1029200015FB0799401A652804D3FFE709A903207E
:102930000870BAE2EDE7FFE7FFE7FFE708980078E5
:102940008007002800D484E00598082808D0FFE715
:10295000059818281FD1FFE7049802281BD1FFE72C
:10296000344800684005002809D5FFE70898C0688A
:10297000002804D1FFE709A90120087095E22F493A
:1029800008687F2212069043089A126912061043C3
:102990000860FFE75CE00898C068002827D0FFE7E0
:1029A000244908680122120210430860FEF7CEFA9B
:1029B0000790FFE71F480068400500280CD4FFE798
:1029C000FEF7C4FA0799401A032804D3FFE709A9C0
:1029D0000320087069E2EDE7184908687F221206B3
:1029E0009043089A12691206104308602FE01149BB
:1029F00008680122120290430860FEF7A7FA0790C8
:102A0000FFE70C480068400500281FD5FFE7FEF7E8
:102A10009DFA0799401A032808D3FFE709A9032064
:102A2000087042E2081002400C100240E9E7C0467C
:102A300008100240001002409410024004100240AE
:102A40004C4700080000002008000020FFE7FFE7D7
:102A5000FFE7089800780007002853D5FFE708989B
:102A6000406900282FD0FFE708988069002806D128
:102A7000FFE7F949086804229043086005E0F64939
:102A80000868042210430860FFE7F3490868012240
:102A900010430860FEF75AFA0790FFE7EE48006817
:102AA00002210840400800280CD1FFE7FEF74EFA4B
:102AB0000799401A122804D3FFE709A903200870D8
:102AC000F3E1EBE71DE0FE4908680122904308604E
:102AD000FEF73CFA0790FFE7F9480068022108403A
:102AE000400800280CD0FFE7FEF730FA0799401A9B
:102AF000122804D3FFE709A903200870D5E1EBE70A
:102B0000FFE7FFE7089800784007002800D4FEE0C0
:102B100003A900200870EB480068C000002810D40A
:102B2000FFE7FFE7E7480268012109070A4302605F
:102B30000068084002900298FFE703A9012008708E
:102B4000FFE7E1480068C00500281DD4FFE7DE4923
:102B500008680122120210430860FEF7F7F9079097
:102B6000FFE7D9480068C00500280CD4FFE7FEF74E
:102B7000EDF90799401A032804D3FFE709A90320B8
:102B8000087092E1EDE7FFE70898007AC007002897
:102B900017D0FFE70898007A400700280AD5FFE71A
:102BA000CA490868042210430860086801221043DB
:102BB000086005E0C5490868012210430860FFE786
:102BC00009E0C249086801229043086008680422AD
:102BD00090430860FFE708988068002852D0FFE71C
:102BE000FEF7B4F90790FFE7B848006880070028AF
:102BF0000DD4FFE7FEF7AAF90799401AB4498842B5
:102C000004D3FFE709A9032008704EE1ECE7089818
:102C1000007A000600281AD5FFE7AC490868802230
:102C200010430860FFE7A9480068000500280DD49C
:102C3000FFE7FEF78BF90799401AA549884204D3AC
:102C4000FFE709A9032008702FE1ECE719E09F498D
:102C50000868802290430860FFE79C4800680005F0
:102C600000280DD5FFE7FEF771F90799401A98493A
:102C7000884204D3FFE709A90320087015E1ECE7B7
:102C8000FFE737E0FEF762F90790FFE78F4800683B
:102C9000800700280DD5FFE7FEF758F90799401A7D
:102CA0008B49884204D3FFE709A903200870FCE0A0
:102CB000ECE786480068000600281AD5FFE783493C
:102CC0000868802290430860FFE78048006800059C
:102CD00000280DD5FFE7FEF739F90799401A7C491E
:102CE000884204D3FFE709A903200870DDE0ECE780
:102CF000FFE7FFE703A80078012807D1FFE7714944
:102D000008680122120790430860FFE7FFE7089870
:102D10000078800600283ED5FFE70898806A0028E2
:102D20001CD0FFE76B490868012210430860FEF7DA
:102D30000DF90790FFE767480068800700280CD46A
:102D4000FFE7FEF703F90799401A032804D3FFE7CA
:102D500009A903200870A8E0EDE71BE05D490868B9
:102D6000012290430860FEF7F1F80790FFE7594809
:102D70000068800700280CD5FFE7FEF7E7F8079901
:102D8000401A032804D3FFE709A9032008708CE048
:102D9000EDE7FFE7FFE70898C06A002800D180E070
:102DA0004448006838210840182875D0FFE7089883
:102DB000C06A022852D1FFE7404908680122120682
:102DC00090430860FEF7C2F80790FFE73B480068B1
:102DD000800100280CD5FFE7FEF7B8F80799401AE4
:102DE000032804D3FFE709A9032008705DE0EDE79D
:102DF00031490868384A1040089B1A6B5C6B2243C3
:102E00009C6B240222431C6C22435C6C2243DB6BD0
:102E10001A4310430860086801221307184308602A
:102E200026490868120610430860FEF78FF80790DD
:102E3000FFE722480068800100280CD4FFE7FEF776
:102E400085F80799401A032804D3FFE709A903204E
:102E500008702AE0EDE71EE0941002401749086868
:102E60000122120690430860FEF770F80790FFE712
:102E700012480068800100280CD5FFE7FEF766F8CD
:102E80000799401A032804D3FFE709A90320087013
:102E90000BE0EDE7FFE703E009A90120087004E07B
:102EA000FFE709A900200870FFE709A800780AB029
:102EB00010BDC046081002400C1002400010024035
:102EC00094100240581002400070004090100240E0
:102ED00089130000981002408C80C11180B586B023
:102EE000049003910292FFE704982C21405C012892
:102EF00004D1FFE705A9022008707AE004992C228A
:102F000001208854FFE7FFE704992D22022088540E
:102F1000884800684005002822D5FFE7FEF716F82C
:102F20000190FFE7B54800684007002817D5FFE784
:102F3000FEF70CF80199401AB14988420ED3FFE719
:102F400004992D2203208854FFE704992C220020A5
:102F50008854FFE705A9032008704AE0E2E7FFE78D
:102F6000744908680122920290430860FDF7EEFF61
:102F70000190FFE7A14800684007002817D4FFE749
:102F8000FDF7E4FF0199401A9D4988420ED3FFE7FF
:102F900004992D2203208854FFE704992C22002055
:102FA0008854FFE705A90320087022E0E2E76149A1
:102FB000086807229043029A1043086003980F4A5A
:102FC000106008680122920210430860FFE7584928
:102FD000FF200860FFE704992D2201208854FFE7B5
:102FE00004992C2200208854FFE705A900200870CE
:102FF000FFE705A8007806B080BDC0461428004051
:1030000010B582B00190694601200870019800282F
:1030100000D189E069460020087001982D21405CAC
:10302000002808D1FFE701992C220020885401983C
:1030300000F086F8FFE701992D2202208854FFE76F
:103040003B49CA20086053200860FFE7019800F060
:1030500023FE00280DD0FFE7FFE73549FF20086079
:10306000FFE701992D220420885469460120087049
:1030700059E030480168304A1140016001994A68BE
:103080000B691A4389690A43016811430160019A77
:10309000D168926812041143284A1160574A116896
:1030A0001F231B029943019C636AA46A23431943AB
:1030B0001160116880239943116000688006002820
:1030C00014D4FFE7019800F071F800280DD0FFE755
:1030D000FFE71749FF200860FFE701992D22042030
:1030E0008854694601200870FFE7FFE768460078CA
:1030F000002817D1FFE70F490868072252079043BD
:10310000019B1A6ADC6922435B691A431043086019
:10311000FFE70749FF200860FFE701992D22012002
:103120008854FFE7FFE7FFE76846007802B010BD6C
:103130002428004018280040BFFF8FFB10280040C3
:1031400080B594B0139002A84421FDF7DBF81398E2
:1031500000681349884221D1FFE70120C103029191
:103160004002129002A8FEF799FE002803D0FFE764
:10317000FDF7B5F9FFE70B4908680122D2031043B8
:103180000860FFE708480268012189020A430260DB
:103190000068084001900198FFE7FFE714B080BD88
:1031A00000280040901002405810024080B584B0C2
:1031B000029012490868202290430860FDF7C6FE7D
:1031C0000190FFE70D480068800600280DD4FFE756
:1031D000FDF7BCFE0199401A0949884204D3FFE774
:1031E00003A90320087004E0ECE703A9002008709D
:1031F000FFE703A8007804B080BDC0460C2800405B
:10320000E903000010B584B002900298002804D1B0
:10321000FFE703A90120087096E00298406A0028A1
:103220000DD1FFE70298406841218900884201D111
:10323000FFE703E002990020C861FFE705E002997B
:103240000020086102994861FFE702990020886226
:1032500002985D21405C002808D1FFE702995C22BA
:1032600000208854029800F075F8FFE702995D226B
:103270000220885402980168086840229043086040
:103280000298C0683249884203D3FFE700200190CA
:1032900003E0012000030190FFE70298C0680F21BE
:1032A000090288420BD0FFE70298C0680721090293
:1032B000884204D0FFE7029900208862FFE7029A63
:1032C00000925068412189000840916821239B02A7
:1032D000194040181169022319404018536901210F
:1032E0000B40C01893694C022340C018D36938249E
:1032F0002340C018136A80242340C018936A4C03EB
:103300002340184312681060029A508B042318401F
:10331000536A10242340C018536B08242340C0185C
:10332000D3680F2424022340C018019B0C032340C0
:10333000C01812685060029A00201066029A5D233D
:10334000D15403A90870FFE703A8007804B010BDAA
:103350000107000080B588B0079000200690059016
:10336000049003900290079800681549884225D17F
:10337000FFE7FFE713480268012109030A430260DF
:103380000068084001900198FFE7FFE7CC48026819
:1033900001210A4302600068084000900098FFE79E
:1033A000E020029002200390002004900590052068
:1033B0000690000702A9FDF731FCFFE708B080BDC9
:1033C000003001406010024080B582B00190019849
:1033D00000F096FC02B080BD83B00190FFE7019839
:1033E0008421405C012804D1FFE702A90220087073
:1033F0002BE00199842201208854FFE7FFE701991F
:103400008822242088500198006800680090019864
:1034100003681868012188431860009849078843A9
:103420000090019900204866009801990968086099
:10343000019920208850FFE70199842200208854B8
:10344000FFE702A900200870FFE702A8007803B098
:10345000704780B586B004900391FFE704988421FB
:10346000405C012804D1FFE705A90220087034E080
:103470000499842201208854FFE7FFE704998822F9
:1034800001922420885004980068006802900498F3
:103490000168086801229043086004980068806809
:1034A00007214906884303990843049909688860FD
:1034B000049800F0AFFC019A02980499096808602A
:1034C000049920208850FFE7049984220020885422
:1034D000FFE705A900200870FFE705A8007806B0FF
:1034E00080BD80B586B004900391FFE704988421E5
:1034F000405C012804D1FFE705A90220087034E0F0
:103500000499842201208854FFE7FFE70499882268
:103510000192242088500498006800680290049862
:103520000168086801229043086004980068806878
:10353000072149078843039908430499096888606B
:10354000049800F067FC019A0298049909680860E1
:10355000049920208850FFE7049984220020885491
:10356000FFE705A900200870FFE705A8007806B06E
:1035700080BD80B582B000900098002804D1FFE79C
:1035800001A9012008704AE000988069002801D054
:10359000FFE700E0FFE7009888214058002808D1A5
:1035A000FFE70099842200208854009800F03CF83E
:1035B000FFE7009988222420885000980168086855
:1035C0000122904308600098806A002804D0FFE739
:1035D000009800F069FCFFE7009800F01FFE01284A
:1035E00004D1FFE701A90120087018E000980168E4
:1035F00048680922D20290434860009801688868B0
:103600002A229043886000980168086801221043CC
:103610000860009800F0F6FC01A90870FFE701A817
:10362000007802B080BD000080B59AB019900020EB
:103630001890179016901590149003A84421FCF749
:1036400061FE199800681C49884233D1FFE70220C7
:1036500003900020059003A8FEF720FC002803D06B
:10366000FFE7FCF73CFFFFE7FFE714480268012192
:1036700049040A4302600068084002900298FFE78C
:10368000FFE7DB48026801210A4302600068084046
:1036900001900198FFE70C20149002201590002063
:1036A00016901790072018900520000714A9FDF721
:1036B000B5FAFFE71AB080BD004400405810024040
:1036C0004C100240FFE7FEE781B000900098806850
:1036D000012109070843034908400099886001B0A7
:1036E0007047C046E8FFFF7F81B0009000980068F7
:1036F00007218905084001B0704782B00190009110
:103700000198406900990422114007228A40104024
:10371000C84002B0704781B00090009880680121D5
:10372000084001B0704781B0009000988068012186
:1037300009070840000F01B0704781B00090009861
:10374000806804210840800801B0704782B0019071
:103750000091009A034802400199886A10438862E8
:1037600002B07047FFFF7F0082B001900091009887
:10377000C243044802430199886A1040886202B03B
:103780007047C046000080FF83B002900191009214
:103790000298806A019A1F210A400F23194691401E
:1037A000884300999B061940890E9140084302996D
:1037B000886203B07047000083B0029001910092CC
:1037C0000298406901990A02904300991140034A06
:1037D000114008430299486103B0704700FFFF7F22
:1037E00082B0019000910198006807218905884303
:1037F000009908430199086002B0704783B00290B5
:103800000191009202984069019A04210A4007211F
:10381000914088430099914008430299486103B060
:103820007047000010B586B0002101910591049108
:1038300003911E4802901E4A0260032292074260D2
:10384000041D8160C16001610423436101764176FA
:1038500081760122C2612177416281622C24015567
:1038600001634363062383633C23C254082202643A
:10387000602242648164C164FCF7D2FF002803D057
:10388000FFE7FCF72CFEFFE70A48039000200490B6
:103890000590064803A9FCF725FE002803D0FFE7A2
:1038A000FCF71DFEFFE706B010BDC046700000200B
:1038B00000240140002000B4B0B590B000200F906B
:1038C0000E900D900C900B90FFE749480268042180
:1038D0000A430260006808400A900A98FFE7FFE781
:1038E0004348026820210A430260006808400990AA
:1038F0000998FFE7FFE73E48026801210A4302609A
:103900000068084008900898FFE7FFE73848026819
:1039100002210A4302600068084007900798FFE709
:10392000344802903449019100220492FDF7F8FADC
:10393000049A0520000705901D210C022146FDF781
:10394000EFFA0498072149030B91032100910C9190
:103950000D902A480BA90691FDF760F9009A04988A
:1039600006990F230B930C920D902548FDF756F9FD
:10397000009B049A05980699224D0B950C930D9285
:10398000FDF74CF9009B0298049A06991E4D0B9581
:103990000C930D92FDF742F9019B0298049A069947
:1039A0000B93012303930C930D920E92FDF736F9BE
:1039B0000298039B049A06991B030B930C920D9299
:1039C000FDF72CF9039B049A059806990B940C9328
:1039D0000D920E92FDF722F9039B049A0598069921
:1039E0005B020B930C920D92FDF718F910B0B0BD6D
:1039F0004C1002400004005002E00000000800509B
:103A000000140050138000003D0F000080B582B00C
:103A100016480190164901601649416000218160F5
:103A20000122C260016141618161C1610162FDF7F2
:103A30002DFB002803D0FFE7FCF751FDFFE70B4803
:103A40000021FDF787FA002803D0FFE7FCF747FDC8
:103A5000FFE706480021FDF7C8FA002803D0FFE77A
:103A6000FCF73DFDFFE702B080BDC046D40000205A
:103A7000005400405B3D300080B582B01348019097
:103A800013490160002141607F228260FF22C260F1
:103A900001614161816101229207C261016241625B
:103AA000FFF7AEFA002803D0FFE7FCF718FDFFE7A9
:103AB00006483C210422FFF711FA002803D0FFE753
:103AC000FCF70DFDFFE702B080BDC04628010020D5
:103AD0000028004080B582B0114801901149016072
:103AE0004121890041600022826007231902C160E0
:103AF000026142610121490281610821C1610262C2
:103B000042628262C36202634163FFF77BFB00286B
:103B100003D0FFE7FCF7E3FCFFE702B080BDC0463F
:103B2000580100200030014080B582B01C48009050
:103B30001C4901601C494160002101918160C16004
:103B400001610C2242618161C16101624162816255
:103B5000FFF70FFD002803D0FFE7FCF7C0FCFFE7ED
:103B60000F480021FFF7BDFC002803D0FFE7FCF75A
:103B7000B6FCFFE70A480021FFF76BFC002803D0E2
:103B8000FFE7FCF7ACFCFFE70548FFF725FC002842
:103B900003D0FFE7FCF7A3FCFFE702B080BDC046FF
:103BA000BC0100200044004040420F00FFE7FEE758
:103BB0007047000080B586B0049000200290354820
:103BC0000068C000002804D5FFE7FDF735FC03902E
:103BD00015E0FFE72F480268012109070A43026048
:103BE0000068084001900198FFE7FDF725FC03906D
:103BF000284908680122120790430860FFE70398EC
:103C000001214902884218D1FFE70498812813D383
:103C1000FFE70498B12803D3FFE7022002900AE0EF
:103C20000498912803D3FFE70120029002E00020CE
:103C30000290FFE7FFE7FFE712E00498802803D334
:103C4000FFE7022002900AE00498702803D1FFE702
:103C50000120029002E000200290FFE7FFE7FFE76B
:103C60006B48026807218A43029B1A43026000687E
:103C700008400299884204D0FFE705A90120087096
:103C800003E005A900200870FFE705A8007806B04A
:103C900080BDC0465810024080B584B002901548DF
:103CA0000068400600281DD4FFE7124908688022FA
:103CB00010430860FDF74AF90190FFE70D480068DE
:103CC000400600280DD4FFE7FDF740F90199401A9E
:103CD0000949884204D3FFE703A90320087005E0DF
:103CE000ECE7FFE703A900200870FFE703A80078CE
:103CF00004B080BD0C280040E903000070470000BC
:103D000080B584B002900298401E000E002803D0B7
:103D1000FFE70120039011E00298401E0949086066
:103D200000200190C043032100F0A6FC0198064941
:103D30000860064A072111600390FFE7039804B06A
:103D400080BDC04614E000E018E000E010E000E0B4
:103D500080B5FDF779FA80BD80B59AB007A80290CA
:103D60004C21FCF7CFFA00200190069005900490BA
:103D70000390012000908002FDF7F2FA009A019969
:103D800002980A23079313020A9340230B930C9281
:103D90001291FEF747FC002803D0FFE7FCF79FFBDA
:103DA000FFE7072003900121049100200590069071
:103DB00003A8FEF763FA002803D0FFE7FCF78FFBA8
:103DC000FFE71AB080BD00000120C0060D49086061
:103DD0000D480068C003002813D5FFE70B480068B2
:103DE000C0B2CC280DD0FFE708480068C0B2AA28AE
:103DF00007D0FFE7064908680122920410430860D3
:103E0000FFE7704708ED00E08020024020200240DC
:103E10000020024070B58AB009900998406E0028D1
:103E200008D1FFE709996A2201208852099968227E
:103E3000885233E008A901910820087007A908708A
:103E4000099800688068072252061040400E06AAB2
:103E500002921070099800688068420F05A80270ED
:103E6000097802780E480490805C48430D4903911C
:103E7000895CFCF749FA019B029A0399044604986D
:103E8000099D6A26AC531B781278805C5843895C84
:103E9000FCF73AFA099968228852FFE70AB070BD28
:103EA0009C4700089447000881B0009000982821A2
:103EB000405C000700280CD5FFE7009800684068C8
:103EC0000121C903884300998A6B1043096848603F
:103ED000FFE700982821405CC00700280CD0FFE7CE
:103EE0000098006840680121490488430099CA6A23
:103EF000104309684860FFE700982821405C80076C
:103F000000280CD5FFE700980068406801210904EB
:103F1000884300990A6B104309684860FFE70098DE
:103F20002821405C400700280CD5FFE70098006876
:103F3000406801218904884300994A6B104309684D
:103F40004860FFE700982821405CC00600280CD597
:103F5000FFE7009800688068012109038843009901
:103F6000CA6B104309688860FFE700982821405C0D
:103F7000800600280CD5FFE70098006880680121C2
:103F80004903884300990A6C104309688860FFE779
:103F900000982821405C400600281DD5FFE70098C6
:103FA00000684068012109058843009A536C184352
:103FB000126850600098406C88420CD1FFE700986E
:103FC0000068406803214905884300998A6C1043C2
:103FD00009684860FFE7FFE700982821405C000679
:103FE00000280CD5FFE70098006840680121C9044B
:103FF00088430099CA6C104309684860FFE701B024
:104000007047000080B590B005900599902200207F
:104010008850FCF79BFF0490059800680068000733
:10402000002832D5FFE70598049B4D4900910121F6
:104030004905002200F09CFA002825D0FFE7FFE7A1
:10404000EFF3108009900998039001200F900F98CA
:1040500080F3108805980168086880229043086002
:1040600003980E900E9880F31088FFE70599882238
:1040700020208850FFE70599842200208854FFE71C
:1040800006A90320087066E0FFE70598006800684D
:104090004007002849D5FFE70598049B3049009167
:1040A00001218905002200F063FA00283CD0FFE7D7
:1040B000FFE7EFF3108008900898029001200D9020
:1040C0000D9880F31088059801680868092252014C
:1040D0009043086002980C900C9880F31088FFE7DA
:1040E000FFE7EFF3108007900798019001220B92F1
:1040F0000B9880F310880598016888689043886061
:1041000001980A900A9880F31088FFE705998C229D
:1041100020208850FFE70599842200208854FFE77B
:1041200006A90320087016E0FFE7059988222020E1
:10413000885005998C22885005990020C8660599F9
:104140000867FFE70599842200208854FFE706A945
:1041500000200870FFE706A8007810B080BDC046B8
:10416000FFFFFF018DB00390FFE7EFF31080069093
:104170000698029001200C900C9880F31088039808
:1041800001680868092252019043086002980B9068
:104190000B9880F31088FFE7FFE7EFF3108005909E
:1041A0000598019001200A900A9880F310880398DE
:1041B00001688868184A1040886001980990099839
:1041C00080F31088FFE70398C06E012818D1FFE73D
:1041D000FFE7EFF31080049004980090012008900E
:1041E000089880F3108803980168086810229043AB
:1041F000086000980790079880F31088FFE7FFE7B2
:1042000003998C222020885003990020C8660399C6
:1042100048670DB07047C046FEFFFFEF10B58CB089
:104220000B9006A9002008700B980068C6498842C8
:104230000CD0FFE70B980068C449884206D0FFE71E
:104240000B980068C249884201D1FFE700E0FFE710
:104250000B9988680A6910434A691043C969084381
:104260000A900B9800680068BA4908400A99084308
:104270000B99096808600B980068406803210903DE
:1042800088430B99CA681043096848600B98806995
:104290000A900B980068AC49884212D0FFE70B984F
:1042A0000068AA4988420CD0FFE70B980068A8492B
:1042B000884206D0FFE70B98016A0A9808430A90E3
:1042C000FFE70B9800688068A34908400A990843F3
:1042D0000B99096888600B980068C06A0F218843B1
:1042E0000B994A6A10430968C862FFE70B98006897
:1042F0009A49884203D1FFE70120089040E00B98DB
:1043000000689749884203D1FFE70220089036E011
:104310000B9800689349884204D1FFE7012000040C
:1043200008902BE00B9800688F49884204D1FFE782
:1043300001204004089020E00B98006882498842E0
:1043400003D1FFE71020089016E00B9800687F4922
:10435000884203D1FFE7082008900CE00B98006822
:104360007B49884203D1FFE70420089002E0002047
:104370000890FFE7FFE7FFE7FFE7FFE7FFE7FFE75B
:10438000FFE70B980068704988420CD0FFE70B9854
:1043900000686E49884206D0FFE70B9800686C49B8
:1043A000884253D1FFE70898FDF708F90490049874
:1043B00000284AD0FFE704980B99496A4A006B49E4
:1043C000895AFBF7A1FF059005980B994A680321CC
:1043D0005143884207D3FFE705980B9949680903C1
:1043E000884204D9FFE706A9012008702CE0049850
:1043F0000B990291496A4A005C498A5A0023039347
:104400001946FBF7D9FE029A039B040E090209190B
:1044100000025268540800195941FBF7CDFE07907D
:104420000798000A03280AD3FFE70798000D002821
:1044300005D1FFE707980B990968C86003E006A952
:1044400001200870FFE7FFE7FFE76DE00B98C06908
:104450000121C903884239D1FFE70898FDF7AEF87A
:1044600004900498002830D0FFE704980B9901913C
:10447000496A4A003D49895AFBF746FF01994000C5
:1044800049684A088018FBF73FFF079007981028F3
:1044900016D3FFE707A84088002811D1FFE7079946
:1044A0000F20814309A8018007990E2211404A0874
:1044B00009991143018000880B990968C86003E0DD
:1044C00006A901200870FFE7FFE72CE00898FDF738
:1044D00075F804900498002824D0FFE704980B99FD
:1044E0000091496A4A002149895AFBF70DFF00995A
:1044F00049684A088018FBF707FF079007981028BB
:104500000BD3FFE707A84088002806D1FFE707A8DC
:1045100000880B990968C86003E006A901200870AB
:10452000FFE7FFE7FFE7FFE70B996A2201208852C8
:104530000B99682288520B99002048670B9988676D
:1045400006A800780CB010BD008000400084004038
:10455000008C0040F369FFCFFFF4FF1100380140E9
:104560000044004000480040004C0040A4470008C0
:1045700010B586B0089C0490039102A802700193C4
:10458000FFE704980068C06903990840401A414257
:10459000484102A90978884266D1FFE70898401C83
:1045A000002860D0FFE7FCF7D1FC0199401A089978
:1045B000884204D8FFE70898002804D1FFE705A93E
:1045C0000320087054E00498006800684007002841
:1045D00048D5FFE70398802844D0FFE70398402898
:1045E00040D0FFE704980068C06908210840C0086F
:1045F000012816D1FFE7049801680820009008629E
:104600000498FFF7AFFD0098049990228850FFE7C7
:104610000499842200208854FFE705A9012008702E
:1046200026E004980068C0690121C9020840C00A58
:10463000012816D1FFE7049801680120C002086232
:104640000498FFF78FFD0499902220208850FFE7FF
:104650000499842200208854FFE705A903200870EC
:1046600006E0FFE7FFE78CE705A900200870FFE7F9
:1046700005A8007806B010BD70B582B0024601A84A
:104680000270009100214056002816D4FFE7002454
:1046900001A908570322D3431840174A80580957E5
:1046A0008C07E50EFF24AC40A043009CA401E4B2BB
:1046B000AC402043194088501AE001A908780F2423
:1046C000204008380322D34318400A4A8058002566
:1046D00049578D07EE0EFF25B540A843009DAD015B
:1046E000EDB2B54028432140083919408850FFE712
:1046F00002B070BD1CED00E000E400E080B584B0C5
:1047000000200390FCF7AAFDFFF726FBFFF7D4F883
:10471000FFF788F8FFF77AF9FFF7AEF9FFF7DAF954
:10472000FFF702FAFFE708490191022008607D20A7
:1047300080000290FCF750FA019A02980121490486
:104740001160FCF749FAEEE7180400500000000081
:104750000000000001020304060708090000000031
:1047600001020304A0860100400D0300801A060028
:1047700000350C0040420F0080841E0000093D00FF
:1047800000127A000024F40000366E010048E801AF
:10479000006CDC02080402040801010101010103AC
:1047A00007010000010002000400060008000A00E2
:1047B0000C0010002000400080000001E0470008CD
:1047C00000000020100000001C010008F047000855
:1047D00010000020481B00003C0100080000000001
:1047E00000093D000100000004000000000000007E
:04000005080000C12E
:00000001FF
