:020000040800F2
:100000000080002029700008A52A0008A72A0008FF
:1000100000000000000000000000000000000000E0
:10002000000000000000000000000000A92A0008F5
:100030000000000000000000AB2A0008AD2A000804
:1000400079700008797000087970000879700008EC
:1000500079700008797000087970000879700008DC
:1000600079700008797000087970000879700008CC
:1000700079700008797000087970000879700008BC
:1000800079700008797000087970000879700008AC
:10009000797000087970000879700008797000089C
:1000A000797000087970000879700008797000088C
:1000B000797000087970000879700008797000087C
:1000C00010B5064C2378002B07D1054B002B02D02E
:1000D000044800E000BF0123237010BD1000002081
:1000E00000000000D4700008044B10B5002B03D0B2
:1000F0000349044800E000BF10BDC04600000000F6
:1001000014000020D4700008002243088B4274D3EE
:1001100003098B425FD3030A8B4244D3030B8B4208
:1001200028D3030C8B420DD3FF22090212BA030C11
:100130008B4202D31212090265D0030B8B4219D3F2
:1001400000E0090AC30B8B4201D3CB03C01A524112
:10015000830B8B4201D38B03C01A5241430B8B425A
:1001600001D34B03C01A5241030B8B4201D30B0343
:10017000C01A5241C30A8B4201D3CB02C01A52416A
:10018000830A8B4201D38B02C01A5241430A8B422D
:1001900001D34B02C01A5241030A8B4201D30B0216
:1001A000C01A5241CDD2C3098B4201D3CB01C01A30
:1001B000524183098B4201D38B01C01A524143093A
:1001C0008B4201D34B01C01A524103098B4201D328
:1001D0000B01C01A5241C3088B4201D3CB00C01A95
:1001E000524183088B4201D38B00C01A524143080D
:1001F0008B4201D34B00C01A5241411A00D2014632
:10020000524110467047FFE701B5002000F0F0F8BA
:1002100002BDC0460029F7D076E7704703460B437E
:100220007FD4002243088B4274D303098B425FD3EF
:10023000030A8B4244D3030B8B4228D3030C8B421B
:100240000DD3FF22090212BA030C8B4202D3121201
:10025000090265D0030B8B4219D300E0090AC30BD6
:100260008B4201D3CB03C01A5241830B8B4201D383
:100270008B03C01A5241430B8B4201D34B03C01A6C
:100280005241030B8B4201D30B03C01A5241C30AE4
:100290008B4201D3CB02C01A5241830A8B4201D355
:1002A0008B02C01A5241430A8B4201D34B02C01A3F
:1002B0005241030A8B4201D30B02C01A5241CDD2E4
:1002C000C3098B4201D3CB01C01A524183098B422F
:1002D00001D38B01C01A524143098B4201D34B0118
:1002E000C01A524103098B4201D30B01C01A52417B
:1002F000C3088B4201D3CB00C01A524183088B4202
:1003000001D38B00C01A524143088B4201D34B00EA
:10031000C01A5241411A00D201465241104670475C
:100320005DE0CA0F00D04942031000D34042534061
:1003300000229C4603098B422DD3030A8B4212D321
:10034000FC22890112BA030A8B420CD38901921153
:100350008B4208D3890192118B4204D389013AD090
:10036000921100E08909C3098B4201D3CB01C01A65
:10037000524183098B4201D38B01C01A5241430978
:100380008B4201D34B01C01A524103098B4201D366
:100390000B01C01A5241C3088B4201D3CB00C01AD3
:1003A000524183088B4201D38B00C01A5241D9D2EB
:1003B00043088B4201D34B00C01A5241411A00D26C
:1003C0000146634652415B10104601D34042002B68
:1003D00000D54942704763465B1000D3404201B5E7
:1003E000002000F005F802BD0029F8D016E770479C
:1003F0007047C0468446100062468C46190063462A
:1004000000E0C0461FB501F091F8002801D400219A
:10041000C8421FBD10B500F0D1FF4042013010BDF1
:1004200010B501F083F8002801DB002010BD012089
:1004300010BDC04610B501F079F8002801DD00209C
:1004400010BD012010BDC04610B500F0FBFF002814
:1004500001DC002010BD012010BDC04610B500F029
:10046000F1FF002801DA002010BD012010BDC046B8
:100470001C2101231B04984201D3000C10391B0AD4
:10048000984201D3000A08391B09984201D3000998
:10049000043902A2105C40187047C04604030202EF
:1004A000010101010000000000000000002B11D13B
:1004B000002A0FD1002900D1002802D00021C94311
:1004C000080007B4024802A14018029003BDC046CC
:1004D00021FFFFFF03B4684601B5029800F024F83D
:1004E000019B9E4602B00CBC7047C04670B500220E
:1004F0000C4B04000D00FFF7B1FF002804D12000D1
:10050000290001F0E9FE70BD064B00222000290001
:1005100001F046FB01F0E0FE80231B069C46604490
:10052000F1E7C0460000E041F0B557464E4645466B
:10053000DE46E0B504000D009246994683B08B423A
:1005400030D82DD04946504601F054FF290006000E
:10055000200001F04FFF331A9846203B34D49B46CD
:1005600053465A46934042461F00534693401E004E
:10057000AF423BD8AF4200D179E05B46A41BBD41FE
:10058000002B00DA76E00022002300920193012381
:100590005A4693400193012342469340009329E039
:1005A0008242CFD900220023009201930C9B002BA2
:1005B00001D01C605D600098019903B0F0BCBB469F
:1005C000B246A946A046F0BD42469B4620239B1A50
:1005D0005246DA40414613004A468A4017004246D6
:1005E0001F43534693401E00AF42C3D9002200234D
:1005F000009201934346002BD8D0FB0772081A43A0
:1006000046467B080EE0AB4201D1A2420CD8A41AA8
:100610009D41012024196D410021013E24184D41C6
:10062000002E06D0AB42EED9013E24196D41002EBA
:10063000F8D1009801995B4600196941002B24DB31
:100640002B005A464446D3402A00E2401C005B4639
:100650001500002B2ADB26009E403300260047466B
:10066000BE403200801A9941009001919EE7A3425A
:10067000BCD882E74246202300219B1A0022009129
:1006800001920122DA40019285E7424620239B1A1B
:100690002A0046469A402300F340444613432A006A
:1006A000E2401C005B461500002BD4DA42462F00C6
:1006B0002023260097409B1ADE403B003343CDE7C2
:1006C000F0B557464E464546DE46E0B583B000904D
:1006D00001910C034F00CE0F610A009C1D03640FB3
:1006E0000C43009900920193C80059004B0D9946A4
:1006F000009A019B6D0AD90F530F2B439A46009B1A
:100700007F0DDA0094464A46B046BA1A8E4200D1AE
:10071000B0E0002A00DC78E04946002900D1E9E099
:10072000C9498F4200D195E10125382A16DC802184
:10073000534609040B439A461F2A00DDE7E12021B6
:1007400055468B1A61469D40D1400D436146994004
:100750004B1E99415346D3400D43E41A451BA84212
:1007600080414042241A230200D40FE16402640A4B
:10077000002C00D139E12000FFF77AFE0300083B8E
:1007800020212800CA1AD0409C4002009D402243EC
:100790009F4200DD73E1D81B0130091A2C008D4007
:1007A000C4406B1E9D411300C2408B40254300276F
:1007B00014001D436B0709D00F232B40042B05D0D9
:1007C0002B1DAB42AD416D4264191D00230200D4C4
:1007D0002DE19D4A0137974200D1D3E046469B491F
:1007E000ED0821404A072A437C054D022D0B640D7C
:1007F00024052C43F60734431000210003B0F0BC5D
:10080000BB46B246A946A046F0BD002A00D184E00E
:100810004A46D21B002F00D06DE12500054300D1D0
:1008200027E1561E012A00D13BE2874DAA4200D1A2
:100830006AE20125382E12DC32001F2A00DDF8E1C1
:1008400020262500B61A07005346B040D440B540D4
:10085000D740461EB0411B1B9A463D4305436246A6
:10086000551BAC459241534652420E004F468846B6
:100870009C1A78E7002A00DC8EE04946002975D1F1
:1008800061465346194300D1F6E0511E012A00D1BA
:1008900091E16D4DAA4200D1DCE00125382914DC3C
:1008A0000A001F2A00DDA2E120215346891A8B404D
:1008B0001D006346D3401D4363468B4019004B1E09
:1008C00099415346D3400D43E4182D188542804189
:1008D00040422418230259D55B4B01379F4251D027
:1008E00001215A4B6A081C4029400A43E507154379
:1008F00064085FE761465346194300D1BCE0511ECE
:10090000012A00D164E1504DAA4200D16AE10125DB
:10091000382900DD22E70A000EE74D4A7D1C15420A
:1009200000D0D0E025006246534605431A43002F0D
:1009300000D037E1002D00D1A8E1002A00D16AE102
:100940006346C51A5346E21AA8429B415B42D31A3A
:100950001A0200D403E263461D1AAC459241534685
:1009600052421C1B0E008846A41A23E736498F42C8
:1009700070D00125382AA8DC8021534609040B4396
:100980009A468EE73C000025002231E707232B40E2
:10099000002B00D010E793E0002A74D04A46D21B07
:1009A000002F00D1C7E02849894500D185E1012504
:1009B000382A12DC802109040C431F2A00DDABE138
:1009C00020212500891A070088408D40D740411E0C
:1009D0008841D4403D430543A24465446545924166
:1009E0005242524414004F4674E72800FFF740FD7E
:1009F000030018331F2B00DCC2E62A0008388240AF
:100A00009F4200DDA9E0DB1B581C1F2800DCACE185
:100A100015001F3BDD40202805D040231B1A9A40BB
:100A2000531E9A411543072300272B40B0E7ED08DA
:100A3000054B62072A43E4089F420FD02403250B8D
:100A40007C05640DD4E6C046FF070000FFFF7FFF72
:100A5000FE070000C00862070243E40813002343B6
:100A600000D186E180252D0325432D03C34C2D0B9A
:100A7000BEE6604654460E001700C508D8E7C04CD5
:100A8000FF1A144096E6BF4A791C11426BD122002E
:100A90000243002F00D0DBE0002A00D12DE16246A6
:100AA00053461A4300D1B6E06346C51885428041DB
:100AB000544440422418230202D50F00B04B1C407E
:100AC0003A002800D8E76246851AA8429241534668
:100AD00052429146E31A1A004B46D21A130091462D
:100AE0001A0254D44A464C462A4300D040E6002617
:100AF000002400257CE6A14DA94500D190E0012508
:100B0000382A00DDABE680252D042C4395E6110044
:100B100055462039CD40A946202A06D040215346CB
:100B20008A1A934062461A43944665466B1E9D415D
:100B30004B461D4312E62100014300D1C4E0511E83
:100B4000012A00D1FBE08D4DAA4200D1B5E001257C
:100B5000382900DD41E70A002FE7894CFF1A1440CD
:100B60006207E4086AE7854A914200D1E3E0634600
:100B7000C218824280412300404253441B18DD07C3
:100B80005C080723520815430F002B4000E763461B
:100B90001D1AAC459241534652421C1B0E0088461A
:100BA000A41AE5E5002D00D091E0002A38D1802478
:100BB0000026240356E76346C51885428041544405
:100BC000404224180127230200D4DFE6022787E6EB
:100BD0006346C51AA842804153464042E41A0127A1
:100BE000241AC0E56207C0080243E40836E7110092
:100BF00053462039CB409946202A06D040215346FF
:100C00008A1A934062461A43944665466B1E9D417C
:100C10004B461D4359E66207C0080243E4080DE74E
:100C200053465A076346D80853460E000243DC0871
:100C300014E715002600203DEE40202A03D0402571
:100C4000AA1A94402043421E90410500354306E60F
:100C5000002A7CD062465346C0081A4300D1FAE607
:100C6000620710438022E4081203144208D0D90816
:100C7000114205D16346D80853460C005B07184360
:100C8000420FC000C00852070243E7E6002A00D125
:100C90002DE76346D80853465A070E000243DC0886
:100CA000CCE663461D1AAC459241534652421C1B8A
:100CB0000E008846A41A013755E56346D908534605
:100CC0005A070A43DC08C9E660465446D4E6C00821
:100CD000002A00D1BFE6620710438022E408120315
:100CE0001442CDD0DD081542CAD16346D808534618
:100CF0005B070E002C001843C2E76346D908534631
:100D00005A070A43DC0899E66346D80853465A074F
:100D10000E000243DC08A1E6110027002039CF4075
:100D2000202A03D040218A1A94402043421E904139
:100D300005003D4351E60C000025002258E56044C3
:100D400060459241544452420500A4183AE7534684
:100D50005A076346D90853460A43DC087EE61A0060
:100D60001C002A4300D0ABE6C1E620210025091A69
:100D700019E500220025014C3AE5C046FF070000B6
:100D8000FFFF7FFFFE070000F0B5DE4645465746F1
:100D90004E46E0B587B0009201930B031B0B9B46B8
:100DA000CA0F4B00040080465B0D029200D16AE13D
:100DB000D44A934200D18CE15946420FC9000A43FC
:100DC000802109041143C2009046CF4A89469246C9
:100DD0009A44002300240393009E019F3B031B0BB6
:100DE0009B467B0030005B0DFD0F002B00D128E1FE
:100DF000C44A934200D177E15946720FC9000A43B1
:100E00008021090411438B46BF49F2008C465146AC
:100E10006344CB1A9A460023029E6E400F2C27D8BB
:100E2000BA49A40009598F46CB464246029E039B0D
:100E3000022B16D0032B00D1A6E2012B00D0DFE05D
:100E400000220023002490461B052343F60733436A
:100E50004046190007B0F0BCBB46B246A946A046C2
:100E6000F0BD002200249046A64BEDE72E00DFE700
:100E7000CB4500D2D4E100D1CFE101235B429C46B7
:100E8000444648460027E2445B46150E1B021D43BC
:100E9000190C2B04120200951D0C9146029103952A
:100EA000FFF7B8F902006A430B04210C804619438E
:100EB0008A4209D9009D0123AC465B4261449C46AD
:100EC000E0448D4200D8FBE1881A0299FFF7A2F9AD
:100ED000039A240442430904240C03000C43A24255
:100EE00006D90099013B8C466444A14200D8E1E157
:100EF000A01A424612041A4393464B4659461B0C0D
:100F00001D0004930B0449460904090C0C001B0C3A
:100F10005C43120C6B43884651436A43250CAC4634
:100F20005B186344994203D9802149028C4662448C
:100F3000190C24041B04240C8A181C19904202D397
:100F400016D1A74214D25B46009D013B4F44059346
:100F50004F459B41AC465B426344C018854200D379
:100F6000A1E1824200D9F6E100D1F1E1059B9B4667
:100F70003C1BA742BF41009D801A7F42C01B854297
:100F800000D1D0E10299FFF745F9039A0B044243DF
:100F9000210C070019438A4200D978E1881A029986
:100FA000FFF738F9039A240442430904240C030090
:100FB0000C43A24200D95DE14146A41A3A041A4307
:100FC000049D13041B0C594347466B439C46100C6D
:100FD00047430B0CBC44634468439F4203D98025BC
:100FE0006D02AC4660441F0C09041B04090C3F1839
:100FF0005B18BC4200D202E100D1FDE001231A439C
:10100000434B5344002B00DCAEE0510700D098E185
:101010005946C90106D559463E4B194080238B4697
:10102000DB0053443C498B4200DD1AE75946D208A5
:10103000490711435A465B0554028846240B5B0D51
:1010400002E75A46009B1A4300D17EE05B46002B24
:1010500000D100E15846FFF70BFA020003000B3AFB
:101060001D27009EBA1A19005846D64008398840F4
:10107000320002439346009A8A40284953448A46E4
:101080009A440023C8E65B460343994656D05B4624
:10109000002B00D1CDE05846FFF7EAF90B235B4265
:1010A0009C460200844466461D239B1B26001100BB
:1010B0005846DE40083988403300034399462300F0
:1010C0008B409846164B00249B1A9A4600230393A4
:1010D00082E65A46024391462AD100229A460223CA
:1010E00090460824039377E65A46009B1A430D4B1B
:1010F0009C46E244002A17D102231C4300239B464E
:10110000023389E6FF07000001FCFFFFF0700008D2
:10111000FF030000FFFFFFFEFE070000F3030000D7
:101120000DFCFFFF01F8FFFF032332001C4373E6B1
:101130009A460323D9460C2403934DE60023984690
:101140009A4601330424039346E601231C430023FB
:101150009B46013360E60023802498460026924B8C
:10116000240371E6012252420121C91A382900DD07
:1011700066E61F2900DCABE01F204042C31A584638
:10118000D8400300202904D058468849514488405B
:101190000243511E8A411A430723190000241140BB
:1011A00013420CD00F231340042B00D1F9E0111D82
:1011B00091429B410A005B4259075B021C0BD2081B
:1011C0000A43904600233FE680244B4624032342F3
:1011D00009D05B46234206D11C4324032E009046CF
:1011E000714B240B30E680244B4624031C4324031C
:1011F000029E6D4B240B27E6002B00D100E70098E0
:10120000511E84466444844200D284E0BC4200D231
:10121000AEE000D1C1E00A00F0E6424500D92CE67C
:101220004B46DC07580843465B081C434346DF0730
:101230002AE6FFF71DF915239C4684440200634605
:1012400020321C2B00DC2EE723000838834099460F
:101250000023984636E7FFF70BF90200030015322A
:1012600020331C2A00DCFBE600990838814000226C
:101270008B4602E70099013B8C466444A14200D9A9
:101280009AE6A24200D897E6831E644494E6AC46F0
:101290006144013F8D4200D980E68A4200D87DE654
:1012A000871E61447AE6854200D05FE6B94500D9E1
:1012B0005CE656E6A24200D81AE6831E644417E6AE
:1012C0008A4200D800E6AC46831E98466144FBE59E
:1012D00037481400504482405B4617008340CC409E
:1012E0007A1E974123433B431A005B46CB4051078C
:1012F00009D00F211140042905D0111D91429241BE
:1013000052429B180A00190200D455E7002201231B
:101310000024904698E50A00BC4200D06EE64B459A
:1013200000D06BE66CE6234B234A5344924500DA27
:1013300018E7012149420A1D8A42894149428B44EA
:1013400066E60F211140042900D161E61100F2E7A1
:10135000BC4200D80AE602235B429C4600994F44F7
:101360004F459B41E3448C465B426344C018FFE514
:101370004946009D480048458941AC464942614480
:101380008146023A6418C7E780245B4624031C4365
:1013900024039046044B240B56E59945E8D30A00F4
:1013A000BDE7002308E7C046FF0700003E04000039
:1013B0001E040000FF03000002FCFFFFF0B55746CB
:1013C000DE464E464546E0B50D000400E80F834674
:1013D0000903D80F090B824619488C461F03690080
:1013E0005E00490D3F0B760D814218D086420FD02A
:1013F0000120B1420DD1BC450BD1944209D1D34556
:101400001CD0002905D160462043431E984100E0CE
:101410000120F0BCBB46B246A946A046F0BD012063
:101420008E42F6D1614639430F0017432743F0D16E
:101430005B465246981A431E9841EAE70020E8E7C7
:10144000FF070000F0B557464E464546DE46E0B57C
:101450000D000F03390B83B0040080460191580042
:10146000E90F314F400D8C466E00190382469146BC
:10147000760D090BD80FBE421FD0BA450FD0002EF3
:101480002FD15546019E3443002D27D10A433AD02F
:10149000002C45D100281AD10120404217E0114309
:1014A0003BD1002E02D1019F2743F3D0844509D1BF
:1014B0006346002BF0D0604609E0019F27432CD102
:1014C000B24524D063460220013B1840013803B0E6
:1014D000F0BCBB46B246A946A046F0BD002CD9D010
:1014E000E4E75446002CEDD08445EBD15645E9DCC9
:1014F000DEDB019B8B42E5D8DAD1C845E2D800207B
:10150000C845E4D2D4E70020002CE0D0DAE711434C
:1015100003D18445D6D10020D9E702204042D6E746
:101520008445E6D0CEE7C046FF070000F0B5574639
:101530004E464546DE46E0B50D000F0304008046EA
:10154000E80F390B844683B05800304F400D0191AD
:101550001E03690082469146490D360BD80FB942E9
:1015600020D0BA450FD000292BD101990C43514608
:10157000002937D1324338D0002C44D1002819D16A
:101580000120404216E0164313D1002902D1019FE9
:101590002743F3D0844520D063460220013B184006
:1015A000013807E0019F274303D18A45F4D1164350
:1015B0001FD0022003B0F0BCBB46B246A946A046ED
:1015C000F0BD5446002CE7D08445E5D15145E3DC1D
:1015D00003DB019BB342DFD80FD06346002BCFD093
:1015E0006046E7E7002CC9D0D4E70020002CE1D00A
:1015F000D2E78445D0D10020DCE7C845CCD8002014
:10160000C845D7D2E9E78445E3D0C5E7FF07000026
:10161000F0B55746DE464E464546E0B51F000B0383
:101620001B0B16009A46CA0F4B000400934687B066
:101630005B0D00D1D5E0BB4A934200D1F8E05146A2
:10164000420FC9000A43802109041143C200914698
:10165000B54A8A469D180023984602933C037B00B6
:10166000FA0F3000240B5B0D009200D196E0AD4ADA
:10167000934231D0720FE4002243802424041443A7
:10168000A94AF000944663445B195A1C01924246F1
:1016900000260A2A42DC5A4600994A4093464246AE
:1016A000022A32DC013A012A00D949E1022E00D196
:1016B000CAE0012E3DD100230024002210005A462A
:1016C0001B052343D2071343190007B0F0BCBB46E8
:1016D000B246A946A046F0BD924B2643EB18002E19
:1016E00000D1BBE00322414611435A468846009987
:1016F0004A40802109018C462900614401914146FC
:101700000A2900DD33E2934603264246012797402B
:10171000A6213A00C9000A400F4231D0029E022E93
:1017200000D135E2032E00D1D2E154464846012EC5
:10173000C1D0019A7D4B94466344002B00DCC0E08D
:10174000420709D00F220240042A05D0021D82421E
:101750008041404224181000E20106D5744B019AE2
:101760001C4080239446DB006344724A93426BDC46
:101770006207C00864025B050243240B5B0D9DE712
:10178000902189000F4263D188223A4200D1D7E0EC
:10179000009BA2469B4681460296BFE72300334347
:1017A00000D17FE0002C00D1ADE12000FEF760FE0B
:1017B000020003000B3A1D201900821A300008397C
:1017C000D0408C400443300088405B4AEB1A94467A
:1017D00063445A1C0192424600260A2A00DC5AE75A
:1017E0009CE753460343994654D05346002B00D1FF
:1017F00077E15046FEF73CFE0B235B429C4602001D
:10180000844411005046083988401D2380466046B4
:101810001B1A2000D8400300404603439A46230089
:101820008B4099460023444D9846AD1A029315E724
:1018300052460243914626D100221D0002239246C1
:1018400008329046029309E700240022354B35E721
:10185000002380249B462403324B2FE7022241467B
:1018600011438022120194462A0062448846019264
:101870000A2900DD52E75A460020009904004A4038
:10188000934602260BE70C221D0003238146904657
:101890000293E3E600239A4604339846033B00256F
:1018A0000293DBE6424601331A432B0090465A1C52
:1018B000019242460024002001260A2A00DCEAE6C2
:1018C0002CE70122D21A382A00DDF4E61F2A00DCB8
:1018D0002AE11F214942CB1A2100D9400B00202ABE
:1018E00005D0164A019D94466544AC402043421EF3
:1018F00090411843072319000024014003420CD0F3
:101900000F230340042B00D140E1031D8342A44177
:101910001800644261076402240BC20800230A43D2
:10192000CCE6C046FF07000001FCFFFFFF030000FC
:10193000FFFFFFFEFE0700000DFCFFFF3E0400005E
:1019400049464A460904090C0D00160C020C000415
:10195000000C4543AC4605007543A84615000F0032
:101960007543009202952A00009D6F4365462D0C39
:10197000A94647444F44B84505D915008022520274
:101980009046454402953D0C039565462D043F0461
:101990002D0CAC463D0065440495250C2404240C14
:1019A000AC4625007543A84665460F00694341448F
:1019B00089466743390C49446E43884503D98022E0
:1019C0005202904646440D0CA84635004544059504
:1019D000039D3F04A8463F0C0904C91988444546A5
:1019E000039555462E04360C2F0C3500454378439D
:1019F00081463800A8462D0CAA46009A50437243EF
:101A00004A445244914503D980256D02A946484471
:101A1000150CA94645462D042D0CA84665467D4368
:101A2000120448449044A9463200654662436E431E
:101A30007C43170C3619BF19BC4203D980246402B9
:101A4000A446E144029C039EA446059D66448E4242
:101A50008941AC4612043C04120CA218624449426B
:101A600054184644A4464645A44182466442A046D2
:101A7000AA4292418C458941E244D04449425242B3
:101A80000A43A045A44182458941644249420C432E
:101A900041463F0CD2191219CC0D0499700208432B
:101AA000411E884141464A44F60D520230434902E4
:101AB00014430843D20135D50122430802401343A1
:101AC000E0071843640834E6009BA2469B46814623
:101AD0008024534624031C4324034A462E4B240BE4
:101AE000ECE5FEF7C5FC15239C46844402006346E2
:101AF00020321C2B00DC84E60023994623000838A2
:101B000083409A468EE6FEF7B3FC020003001532CE
:101B100020331C2A00DC4EE602003400083A002084
:101B2000944052E6019304E61C4B21009C460300BE
:101B3000019DD3406544A94019430300AB40581EA2
:101B4000834119430800D4404B0709D00F230B40B1
:101B5000042B05D00B1D8B428041404224181800F5
:101B6000230200D4D6E6012300240022A6E50F2993
:101B7000AAD1802352461B031A42A9D01C42A7D1E6
:101B80001C43009B02009B46034B97E50024C1E6E3
:101B90000024014B220091E5FF0700001E04000015
:101BA000F0B54E464546DE465746E0B585B0009056
:101BB00001910C034F00CE0F610A009CB046640FE8
:101BC0000C4300997F0DC80011001A001B039C46AE
:101BD0000091019251004B0D9946019B009DD90F38
:101BE00063466A0F5B0A1343EA0094469346C14A70
:101BF00003900293914500D1CDE0012569404D4607
:101C00007D1BAA468E4200D180E0002D00DC35E32A
:101C10004946002900D1DFE0974200D194E15246C5
:101C20000125382A19DC8022029B120413430293F7
:101C300052461F2A00DDE3E1534620226146029D01
:101C4000D21A9540D9400D43614691400A00511E79
:101C50008A411543029ADA40A41A451BA8428041E2
:101C60004042241A230200D43DE16402640A002C9D
:101C700000D147E12000FEF7FBFB0300083B2021D9
:101C80002800CA1AD0409C4002009D4022439F4237
:101C900000DD77E1D81B0130091A2C008D40C440CB
:101CA0006B1E9D411300C2408B402543002714004A
:101CB0001D436B0709D00F232B40042B05D02B1D90
:101CC000AB42AD416D4264191D00230200D440E1D6
:101CD000884A0137974200D101E1012643468649EF
:101CE000ED0821404A072A437C054D022D0B640D67
:101CF0001E4024052C43F60734431000210005B094
:101D0000F0BCBB46B246A946A046F0BD002D00DCA3
:101D1000D0E24946002900D0D4E06146029B194335
:101D200000D12BE1691E012D00D1D9E1954200D1EE
:101D30000AE10125382917DC8A4653461F2B00DDAE
:101D4000E7E12022D21A029B614693401D005346D0
:101D5000D940634693401A000D43511E8A415346B1
:101D60001543029ADA40A4182D188542804140425A
:101D70002418230200D4B6E05E4B01379F4200D105
:101D8000ADE001215C4B6A081C4029400A43E5078D
:101D9000154364088DE7594A029B92466246BA444D
:101DA0001A432CD08E422ED05246002A60D0002FEB
:101DB00000D1DBE063460E00029CD80862070243B4
:101DC000E4081300234300D154E280252D0325436A
:101DD0002D03484C2D0B8CE76146029B194300D123
:101DE000CCE029000139012D00D188E1954200D1D4
:101DF000AAE00125382900DD2FE78A4618E70122ED
:101E000051408E42D0D15346002B00D1BEE0002F6E
:101E100000D038E1CA462200024300D1E2E1534635
:101E2000591E012B00D10DE2324A924500D1D2E178
:101E30000127382913DC1F2900DDEEE12022029B57
:101E4000521A250007009A46CC4090409540CF405A
:101E5000A244421E904153462F43074302933D0044
:101E6000654465459241029B52424F46D41880E733
:101E7000234A7D1C154200D0AAE062462500029B41
:101E800005431A43002F00D0F5E0002D00D16BE18F
:101E9000002A00D152E16346C51A029BE21AA84209
:101EA0009B415B42D31A1A0200D4D5E163461D1A46
:101EB000AC4592410126029B52421C1B8846A41A43
:101EC0000E40F6E697423FD052460125382A00DD03
:101ED0004AE78022029B1204134302932DE73C0041
:101EE0000025002205E707232B40002B00D0E2E667
:101EF0006BE0C046FF070000FFFF7FFF01F8FFFF18
:101F0000FE0700002800FEF7B3FA030018331F2B6A
:101F100000DCB4E62A00083882409F4200DDB9E0C8
:101F2000DB1B581C1F2800DCA0E115001F3BDD4017
:101F3000202805D040231B1A9A40531E9A4115436E
:101F4000072300272B40D0E7C00862070243E408BC
:101F500037E7EA0863071A43D34BE4089F4200D1EE
:101F60002FE72403250B7C05640DC2E6CA46220038
:101F7000024358D163460E00029C0393039B5746CD
:101F8000DA08E7E7C94CFF1A144092E6C84D7A1CFC
:101F90002A4200D084E022000243002F00D0EFE06C
:101FA000002A00D1E5E0624602990A4300D1C5E06B
:101FB0006346C5188C4685428041644440422418DB
:101FC000230202D5B94B01371C40BA460395D5E729
:101FD0006246851AA842924152429146029BE31AF8
:101FE0001A004B46D21A130091461A026CD44A4684
:101FF0004C462A4300D03AE600260024002578E625
:10200000029953460D00203AD540202B06D040229D
:10201000D21A0B00934062461A4393465B465A1EFF
:1020200093411D4319E653465A1E012B00D1C6E0C9
:102030009D4EB24500D1BDE688460E000125382AE6
:1020400010DC1F2A7FDC20212500891A0700884028
:102050008D40D740D440411E8841029B3D431B1B0D
:10206000054302936246551BAC459241029B524286
:102070004F469C1AF6E5002D00D0B7E0002A00D1AB
:10208000F0E001260E4063460298D90842070A4351
:10209000C40896E6854CFF1A14406207E40860E71E
:1020A00081498A4200D1C9E06346C118814280411A
:1020B000029B4042E3181B18DD075C080723490810
:1020C0000D4317002B4010E763461D1AAC459241A3
:1020D0000126029B52421C1B8846A41A0E40C6E5EC
:1020E0006346C518029B854280419C464042644439
:1020F00024180127230200D4F5E6022741E66346AF
:10210000C51AA8428041029B4042E41A0127241AC2
:10211000A8E5029D52462B00203AD34019005346B1
:10212000202B06D04022D21A2B00934062461A433D
:1021300093465D466B1E9D410D4315E66207C00840
:102140000243E4080DE7110027002039CF40202A80
:1021500005D040218A1A9440250005430395039D2C
:102160006A1E95413D437DE7002A00D144E70126E0
:102170000E406346D908029B5A070A43DC08F0E682
:10218000002A28D06246029FC0083A4300D1DCE60C
:10219000620710438022E4081203144209D0FD08AC
:1021A000154206D1634601262C00D8087B07184348
:1021B0000E40420FC000C0085207024301E66346CA
:1021C0001D1AAC459241029B52421C1B0E008846D0
:1021D0000127A41A46E56346D908029B5A070A4319
:1021E000DC08EEE56346029C0393C7E6C008002ABC
:1021F00000D1AAE6620710438022E40812031442C9
:10220000D7D0029FFD081542D3D163460126D808D6
:102210007B072C0018430E40CBE70A002700203A2A
:10222000D740202905D04022521A9440250005436A
:102230000395039D6A1E95412F4310E61400002567
:10224000002256E5029B60449946604592414C4409
:1022500052420500A4184CE71A001C002A4300D083
:10226000B3E6C9E6802400262403AEE5202100253C
:10227000091A17E5002200250B4C3AE5002D00D184
:10228000F6E54B46DA1B9246002F00D16FE6382A5E
:1022900005DC80263604344388460E00D1E68846A5
:1022A0000E000125DEE6C046FF070000FFFF7FFFAE
:1022B000FE070000002D00D168E64B46D91B002F19
:1022C00001D18A46A7E50127382900DDC7E580222C
:1022D00012041443AFE5C0460B00020070B5164D62
:1022E0000C0382B04900002000920193240B490D99
:1022F000DE0FA94204DD1148814203DD104BF018C6
:1023000002B070BD8020400320430E4C641A1F2C85
:1023100008DD0D4B5B1AD84003005842002EEFD168
:102320001800EDE7094B009A9C46030061448B407E
:10233000E2401343F1E7C046FE0300001D04000025
:10234000FFFFFF7F3304000013040000EDFBFFFFDD
:1023500070B5002816D0C317C5185D40C40F2800FB
:10236000FEF786F8104B1B1A5B055B0D0A2814DC80
:1023700002002E00153296400B22121AD5402D0372
:102380002D0B03E000240023002500261B052B4312
:10239000E40723433000190070BD0B3885402D033E
:1023A00000262D0BF2E7C0461E04000010B5041EE7
:1023B00010D0FEF75DF80E4B1B1A5B055B0D0A286B
:1023C0000FDC0B222100121AD14015300A03844081
:1023D000120B01E0002300221B051343200019000B
:1023E00010BD22000B38824012030024120BF3E7C9
:1023F0001E04000010B5002903D1FEF739F8203083
:1024000002E00800FEF734F810BDC04610B50A001F
:10241000044B0100180004F007FCFA20800002F0D1
:102420005DF910BD3071000872B6FEE700B599B0D5
:102430004C22002105A804F020FE1022002101A852
:1024400004F01BFE8020C00002F054F80A2305931C
:10245000F6330893C03B09933F3B0A930023109344
:1024600005A800F02FFE00280ED107230193063B9C
:102470000293002303930493012101A801F022F9A0
:10248000002803D119B000BDFFF7CEFFFFF7CCFF46
:10249000F8B502F005F9FFF7C9FF00F03DF800F0CC
:1024A000EFF800F05DF900F0CFF900F027FA00F046
:1024B0007DFA04F0EDFC00F099FD0100134B1800CB
:1024C00004F0B2FB04F02EFD04F076FD04F0B4FC41
:1024D00004F09BFD00250E4C2900200004F0A4FB15
:1024E0000C4F0223BB61FA267600300002F0F6F8AA
:1024F00080239B02BB616F1C2900200004F094FB29
:10250000300002F0EBF83D00E5E7C04648710008F6
:102510006071000800040050F0B5D6464F464646AC
:10252000C0B58AB01422002105A804F0A6FD4D4BC9
:10253000D96C04221143D964D96C0A400192019AE2
:10254000D96C20221143D964D96C0A400292029AB4
:10255000DA6C01252A43DA64DA6C2A400392039A82
:10256000D96C02221143D964DB6C1A400492049B9B
:102570003D4B9A463D4E00221900300001F0B3FF5A
:102580008023DB01994601221900300001F0ABFFE6
:102590009021A027FF0500220901380001F0A3FFC8
:1025A000A02101224901380001F09DFFE0231B0218
:1025B00005930323984606930024079405A92C4805
:1025C00001F0C2FE0F23059343460693079405A925
:1025D000284801F0B9FE284B05934346069307941B
:1025E00005A9380001F0B0FE244B0593434606933D
:1025F000079405A9300001F0A7FE53460593069500
:102600000794089405A9300001F09EFE80235B0129
:1026100005930694079405A9300001F095FE4B46FA
:10262000059306950794089505A9300001F08CFEE6
:10263000E8235B01059306950794089405A93800E3
:1026400001F082FE80239B0005930694079405A960
:10265000380001F079FE0AB0E0BCBA46B146A8469F
:10266000F0BDC0460010024002A00000000400506F
:102670000008005000140050138000003D0F0000BF
:1026800010B584B00C22002101A804F0F6FC1D480E
:102690001D4B0360C0231B06436000238360C3609F
:1026A0000361042141610376437683760122C2618E
:1026B00020240355436283620C3403550363416352
:1026C0000231816336314254073202645832426427
:1026D0008364C36400F006FA00280CD10B4B01930D
:1026E000002302930393074801A900F01DFB002873
:1026F00004D104B010BDFFF797FEEFE7FFF794FE9B
:10270000F7E7C0462C00002000240140002000B460
:1027100010B592B004004422002101A804F0ADFCE1
:1027200022680D4B9A4201D012B010BD8023DB010C
:10273000019301A801F088F800280AD1074B1A6E0E
:10274000802149030A431A661B6E0B400093009BCD
:10275000EAE7FFF769FEF1E70024014000100240BC
:1027600010B51448144B0360144B4360002383607E
:102770000122C260036143618361C361036201F0AE
:10278000BFFF00280CD10B48002102F027F80028D9
:1027900009D10848002102F04DF8002806D110BDEB
:1027A000FFF742FEEFE7FFF73FFEF2E7FFF73CFEE1
:1027B000F5E7C04690000020005400405B3D30002B
:1027C00010B598B004001422002113A804F055FCA1
:1027D0004422002102A804F050FC2268174B9A42C0
:1027E00001D018B010BD2023029302A801F02CF8EC
:1027F00000281FD1124CE26C02231A43E264E26CFF
:1028000013400093009BC0231393AE3B149300230B
:10281000159316930433179313A90A4801F094FDF6
:10282000A36D802292031343A365A36D134001930C
:10283000019BD6E7FFF7F8FDDCE7C04600540040F7
:10284000001002400004005010B51148114B036005
:10285000002343607F2282608032C2600361436153
:1028600083618022D205C2610362436202F046F8AE
:10287000002807D1064804223C2102F0A9F80028CC
:1028800003D110BDFFF7D0FDF4E7FFF7CDFDF8E76A
:10289000E40000200028004010B592B0040044225B
:1028A000002101A804F0E9FB2268124B9A4201D0F2
:1028B00012B010BD80231B02019380239B00119353
:1028C00001A800F0C1FF002810D10B4B90215858EF
:1028D0008022120202435A509A6D8021C9000A4395
:1028E0009A659B6D0B400093009BE1E7FFF79CFD11
:1028F000EBE7C046002800400010024010B5114828
:10290000114B036082235B00436000238360E0225D
:10291000D200C26003614361802292008261F13A79
:10292000FF3AC261036243628362093AC26203638F
:102930000833436302F01EFA002800D110BDFFF7F0
:1029400073FDFBE7140100200030014010B588B092
:1029500004001422002103A804F08FFB2268114B0D
:102960009A4201D008B010BD0F4B1A6E8021490168
:102970000A431A661A6E0A400192019AD96C012222
:102980001143D964DB6C1A400292029BE02303934B
:10299000DE3B049303330793A02003A9C00501F095
:1029A000D3FCDFE7003001400010024010B51948A9
:1029B000194B0360194B436000238360C3600361BC
:1029C0000C2242618361C36103624362836202F04D
:1029D0008DFF002811D10F48002103F007F80028CF
:1029E0000ED10C48002103F027F800280BD109482C
:1029F00002F0DCFF002809D110BDFFF715FDEAE762
:102A0000FFF712FDEDE7FFF70FFDF0E7FFF70CFD15
:102A1000F2E7C046780100200044004040420F0029
:102A200010B598B004001422002113A804F025FB6F
:102A30004422002102A804F020FB2268174B9A428E
:102A400001D018B010BD0223029302A800F0FCFED2
:102A5000002820D1124B9A6D802189020A439A6581
:102A60009A6D0A400092009AD96C01221143D964F0
:102A7000DB6C1A400192019B0C2313930A3B1493C5
:102A800000231593169307331793A02013A9C005AD
:102A900001F05AFCD5E7FFF7C7FCDBE70044004034
:102AA00000100240FEE7FEE77047704710B501F0E6
:102AB00003FE10BD82B00A4B9A6D802149050A437E
:102AC0009A659A6D0A400092009A196E012211438C
:102AD00019661B6E1A400192019B02B07047C046F6
:102AE0000010024030B583B0040000230193002899
:102AF00000D106E1836D002B13D023689A68D200C1
:102B00001CD49968804A1140802252050A439A6079
:102B10007E4B18687E49FDF7F7FA013040000190BE
:102B200009E0FFF7F5FD0023E3655422A354E4E731
:102B3000019B013B0193019B002BF9D123689A680B
:102B4000D20000D59DE0A26D10210A43A265E26D7E
:102B50000F390A43E26501209A6804210D001540EF
:102B6000114200D00125A26DD20600D5C2E0002D91
:102B700000D0BFE0A26D67490A400631FF310A4329
:102B8000A2659A68D20752D4A268217E89030A43BB
:102B9000617EC9030A43A57E69030A43216B0029AC
:102BA00001D0802149010A43E1680A4321690029D3
:102BB00069DB802189030A432C21615C49000A43B7
:102BC0002021615C012961D0616A002905D0E025DE
:102BD0006D002940A56A29430A43D9684E4D294012
:102BE0000A43DA6063689B0F9B07E26C1A433C213F
:102BF000615C012959D021680B69484D2B40134372
:102C00000B616368C0221206934210D08022D20565
:102C100093420CD080221206934208D040490A68A1
:102C2000404D2A40F025AD032B4013430B60216833
:102C3000636B4A690725AA4313434B612168A26B62
:102C40004B696935AB43120113434B612369002B78
:102C500035D12268916A103B0B43936223685A690D
:102C600007231340626B9A423BD0A36D1222934319
:102C7000023A1343A365E36D0F3A1343E365012062
:102C80003DE0002068E74900490894E7002D03D1A2
:102C9000802149020A4397E7A16D20252943A165B8
:102CA000E16D1F3D2943E1658EE7216C0B43616CAB
:102CB0000B43A16C0B43134301221A439BE7802271
:102CC00092039342CAD121688B6AE369013B9B005E
:102CD0001C221A4010235B429340226E13438B62E6
:102CE000BCE70023E365A36D03229343023A134339
:102CF000A36504E0A36D10221343A365012003B074
:102D000030BD0120FBE7C046E8FFFF6F0800002050
:102D1000400D0300FDFEFFFF0102DEFF02FCFF1F6E
:102D200008270140FFFFC3FFF0B5C64600B582B0DB
:102D300004000D000023019301695433C35C012B8F
:102D400000D1F5E054230122C2540668B3685B0742
:102D50000BD5836D1F32134383650120542300225A
:102D6000E25402B080BCB846F0BD6B68022B00D1C3
:102D70009CE080221206914227D06E4A914224D0D4
:102D8000076E1F221A4090460F2393409F432868E6
:102D9000430230D1800E1F3318404346984007430A
:102DA000276669688B080133E269934213D8286863
:102DB000B26A1F231940103B1F008F40BA43800E98
:102DC00003408B401343B36205E02B68B26A5B0299
:102DD0005B0A1343B36221682B68A8684A691B0227
:102DE0009A4303405448034013434B612B68002B24
:102DF00014DB0020B2E743081F2105E04000012258
:102E00001A40104301395B08002BF7D1884003D0EA
:102E1000FDF72EFBC0B2C0E72020BEE7474A11688D
:102E2000E02252040A404648834207D04548834284
:102E300022D0454883422CD000208FE70802F5D4E9
:102E400080231B0413433D490A6840480240134352
:102E50000B603F4B18683F49FDF756F901304300BE
:102E60001B189B00019302E0019B013B0193019B16
:102E7000002BF9D1002071E7C801DAD480235B046C
:102E800013432E490A683148024013430B60002067
:102E900064E749024AD48023DB03134327490A68C5
:102EA0002A48024013430B60002057E780231B068B
:102EB000994202D01F4B994205D12B68B26A5B023E
:102EC0005B0A9A43B2622B68002B01DB002045E7C6
:102ED0001A4A12681A498B4207D01A498B420FD0FE
:102EE00019498B4217D0002038E7A0235B041A4011
:102EF00012490B68154803401A430A6000202DE769
:102F0000C0231B041A400D490B68104803401A43A4
:102F10000A60002022E7C0235B041A4007490B68BF
:102F20000A4803401A430A60002017E7002015E70B
:102F3000022016E70400008000FFFF7F0827014001
:102F4000000800AC002000B4001000B0FFFF3FFEFE
:102F500008000020400D030030B583B00400204B72
:102F60009B6DDB000BD501F013FB80239B00984287
:102F700016D07F2C24D8702C1AD0002021E0184DB8
:102F8000AB6D802252051343AB65AB6D13400193CB
:102F9000019B01F0FDFAAB6D124A1340AB65E4E70B
:102FA000802C07D9B02C07D8902C07D9012008E035
:102FB000012006E0002004E0022002E0002000E002
:102FC000022009490B680722934303430B600B68F7
:102FD0001A40824202D1002003B030BD0120FBE73D
:102FE00000100240FFFFFFEF0020024010B5314B00
:102FF0009968382002000A40DC6803232340084215
:103000000ED0182A0AD0082A28D0102A29D0202A1F
:103010002AD0282A2CD00020002314E0012BF2D142
:10302000244B1B681B0711D422499423C958090A51
:10303000853B0B400B2B00D900231F499B005B589D
:10304000002A09D00020182A16D010BD194B196883
:1030500009090F230B40EDE71800F4E71748002398
:10306000F1E717480023EEE7FA20C0010023EAE762
:10307000802000020023E6E70E49C868153A0240A6
:10308000C8680009072101400131022A10D0032A33
:1030900000D10B4B074CE068000A7F2210405843D8
:1030A000FDF732F8E168490F0131FDF72DF8CCE763
:1030B000024BEFE700100240107200080024F400F9
:1030C00000093D00F0B583B00400C54B9A6838256F
:1030D0001540DB6803261E400368DB0659D5002D2A
:1030E0001BD0182D17D0E369002B00D1B3E0BC4AE8
:1030F000136801210B43136001F0EAFA0700B84B93
:103100001B689B0700D593E001F0E2FAC01B022880
:10311000F5D90320C5E2012EE5D1B14B1B689B0711
:1031200003D5E369002B00D1B2E2606AAC4B1B68A7
:103130001B0757D5AA4B1A68F0231340984258D85A
:10314000A74B1A6808210A431A601A68E8318A43B3
:10315000616A0A431A605A68A2490A40216A090250
:103160000A435A60002D5CD0FFF740FF9C4B9A68E1
:10317000120A0F2313409C4AD25C1F231340D840ED
:103180009A4B18609A4B186801F05EFA002800D03C
:1031900087E22368DB077BD5102D71D0182D6DD009
:1031A000636880225202934200D18FE0A022D202B3
:1031B000934200D191E08A4A13688E490B40136014
:1031C0006368002B00D18FE001F082FA0700844B86
:1031D0001B689B035CD401F07BFAC01B6428F6D902
:1031E00003205EE27E4A9423D25812095C331340D6
:1031F000A4E7FFF7B1FE002800D04BE2784B1A6835
:1032000008210A431A601A68E8318A43616A0A434E
:103210001A605A6873490A40216A09020A435A60CF
:10322000A2E7606AFFF798FE00289DD0012038E2EF
:103230006B4B1A6808210A431A601A68E8318A43FE
:10324000616A0A431A605A6866490A40216A09029B
:103250000A435A609DE7624A136801218B43136059
:1032600001F036FA07005E4B1B689B0791D501F011
:103270002FFAC01B0228F6D9032012E2032E8FD1A9
:10328000574B1B689B0303D56368002B00D103E2F7
:1032900023689B0748D5082D36D0182D32D0E36817
:1032A000002B6ED04E4A116880235B000B431360E5
:1032B00001F00EFA05004A4B1B685B0558D401F07B
:1032C00007FA401B0228F6D90320EAE1444A1168B4
:1032D00080235B020B43136072E7414A1168A0230D
:1032E000DB020B4313606BE701F0F2F907003C4B84
:1032F0001B689B03CCD501F0EBF9C01B6428F6D901
:103300000320CEE1022ECAD1354B1B685B0503D5E5
:10331000E368002B00D1C1E131494B68364A1340C4
:103320002269120613434B6023681B0768D5636943
:10333000002B40D0A369002B36D1294994228B5809
:10334000042083438B50264994228B580120034349
:103350008B5001F0BDF90500214A9423D3589B07F7
:103360004ED401F0B5F9401B1128F5D9032098E19E
:103370001B494B68204A13402269120613434B60D5
:10338000D2E7174A13681D490B40136001F0A0F9FA
:103390000500134B1B685B05C6D501F099F9401B6E
:1033A0000228F6D903207CE10D4994228B58042091
:1033B00003438B50C7E70A4994228B58012083436B
:1033C0008B5001F085F90500054A9423D3589B07DB
:1033D00016D501F07DF9401B1128F5D9032060E1D5
:1033E00000100240FF00FFFF4872000808000020A4
:1033F00004000020FFFFFAFFFFFFFF80FFFEFFFF3A
:1034000023685B0700D4AEE0A84B9B6DDB000BD4B8
:10341000A64B9A6D802149050A439A659B6D0B4026
:103420000193019B012500E00025A14B1B68DB05F2
:103430000FD5A368DA0727D55B071ED59B4A9023D3
:10344000D15804200143D150D15803380143D15001
:1034500024E0974A116880235B000B43136001F05E
:1034600037F90600924B1B68DB05E2D401F030F916
:10347000801B0228F6D9032013E18C4990228B5837
:10348000012003438B5009E0884A9023D158012042
:103490008143D150D15803308143D150A368002BD0
:1034A00038D001F015F90600804A9023D3589B07C5
:1034B00007D401F00DF9801B7E4B9842F4D903200C
:1034C000EFE0A3681B0612D5110090228B588020D4
:1034D00003438B50754A9023D3581B0541D401F008
:1034E000F7F8801B734B9842F4D90320D9E06F4959
:1034F00090228B58802083438B506C4A9023D35862
:103500001B052ED501F0E4F8801B6A4B9842F4D9D4
:103510000320C6E001F0DCF80600644A9023D3588B
:103520009B0707D501F0D4F8801B624B9842F4D971
:103530000320B6E09023D3581B0612D51100902229
:103540008B58802083438B50584A9023D3581B05B7
:1035500007D501F0BDF8801B564B9842F4D90320E3
:103560009FE0012D1AD023689B0632D5A36A002B59
:103570001AD04E4998228B58012003438B5001F0FA
:10358000A7F80500494A9823D3589B0721D401F096
:103590009FF8401B0228F5D9032082E0434A936D2F
:1035A00045490B409365DEE7404998228B5801203E
:1035B00083438B5001F08CF805003C4A9823D35884
:1035C0009B0706D501F084F8401B0228F5D903209B
:1035D00067E0E36A002B63D0344A916838220A40DE
:1035E000182A60D0022B12D0304A136833490B409E
:1035F000136001F06DF804002C4B1B689B0145D54E
:1036000001F066F8001B0228F6D9032049E0274A9A
:1036100013682A490B40136001F05AF80500234B48
:103620001B689B0106D501F053F8401B0228F6D910
:10363000032036E01D4AD36821491940236B606B93
:103640000343A06B00020343206C0343606C0343FD
:10365000E06B03430B43D360D16880235B050B43CE
:10366000D360116880235B040B43136001F030F8D2
:1036700004000E4B1B689B0106D401F029F8001BC7
:103680000228F6D903200CE000200AE0002008E020
:10369000012006E0012004E0012002E0012000E01A
:1036A000002003B0F0BD0120FBE7C046001002403F
:1036B0000070004088130000FFFFFFEFFFFFFFFED8
:1036C0008C80C11170B504000D004C4B1A680723A3
:1036D00013408B420AD249490B68072293432B437C
:1036E0000B600B681A40AA4200D081E02368DB0718
:1036F00048D56368032B09D0022B25D0002B29D194
:103700003F4A1268920706D4012070E03C4A1268D2
:10371000920100D46EE03A498A680720824313433D
:103720008B6000F0D5FF0600354B9B6838221A40AD
:103730006368DB009A4225D000F0CAFF801B314A43
:103740009042F1D9032052E02D4A12689203E2D44C
:1037500001204CE0012B08D0042B0CD028499022EA
:103760008A589207D7D4012041E0254A12685205B1
:10377000D1D401203BE0224994228A589207CAD42E
:10378000012034E023689B0706D51D4A93681E4933
:103790000B40A1680B439360184B1A680723134032
:1037A000AB4209D915490B68072293432B430B60A1
:1037B0000B681A40AA421FD123685B0706D5104A3E
:1037C000936812490B40E1680B439360FFF70EFCCE
:1037D0000B4B9A68120A0F2313400D4AD25C1F2329
:1037E0001340D8400B4B1860032000F02DFF70BD34
:1037F0000120FCE70120FAE70120F8E70020024061
:103800000010024088130000FFF0FFFFFF8FFFFF52
:103810004872000808000020014B18687047C04635
:103820000800002010B5FFF7F7FF054B9A68120B50
:1038300007231340034AD25C1F231340D84010BD16
:103840000010024040720008F0B583B00400036825
:103850001B0466D5A44B9B6DDB001ED4A24B9A6D56
:10386000802149050A439A659B6D0B400193019B9A
:1038700001269E4A116880235B000B43136000F011
:1038800027FF0500994B1B68DB0508D400F020FFDB
:10389000401B0228F6D9032502E00026E9E70025AF
:1038A000002D26D1904A9023D158C02292000B00BF
:1038B0001340114211D0226C9A420ED08A499022B4
:1038C0008B588B4803408F588020400238438850E3
:1038D0008858884F384088508B50DB0711D4002D12
:1038E00007D1814990228B5881480340206C0343C3
:1038F0008B50012E16D17C4A936D7F490B40936506
:1039000010E000F0E5FE0700774A9023D3589B07AC
:10391000E5D400F0DDFEC01B784B9842F4D90325B6
:10392000DDE700252368DB0707D56F4988228B5820
:1039300003208343606803438B5023689B0707D5AC
:10394000694988228B580C208343A06803438B501D
:103950002368DB0607D5644988228B5868480340F2
:10396000606903438B5023681B0707D55E49882293
:103970008B585F480340206903438B5023685B07E3
:1039800007D5594988228B58C0208343E0680343F8
:103990008B5023689B0607D5534988228B5859487A
:1039A0000340A06903438B5023685B0607D54E494B
:1039B00088228B5854480340E06903438B502368A6
:1039C0001B0607D5484988228B5850480340206A77
:1039D00003438B502368DB0507D5434988228B5866
:1039E0004B480340606A03438B5023689B0507D50F
:1039F0003D4988228B5847480340A06A03438B50B7
:103A000023685B040CD5E26B80235B059A424AD0A5
:103A1000354988228B5840480340E06B03438B5064
:103A20002368DB040CD5626B80231B059A4241D0CE
:103A30002D4988228B5839480340606B03438B50D3
:103A400023689B040CD5A26B80231B059A4238D0B7
:103A5000254988228B5831480340A06B03438B5083
:103A600023685B050CD5E26A80235B049A422FD061
:103A70001D4988228B582A480340E06A03438B5033
:103A800023681B050CD5226B80239B049A4224D00B
:103A9000154988228B5822480340206B03438B50E2
:103AA000280003B0F0BD104AD16880235B020B43AD
:103AB000D360ADE70C4AD16880235B040B43D3602D
:103AC000B6E7094AD16880235B040B43D360BFE7A4
:103AD000054AD1680B43D360CAE7034AD168802303
:103AE0005B040B43D360D3E700100240007000403A
:103AF000FFFCFFFFFFFFFEFFFFFFFFEF881300004B
:103B0000FFF3FFFFFFCFFFFFFFFFFCFFFFFFF3FF10
:103B1000FFFFCFFFFFFF3FFFFFFFFFCFFFFFFFF3E1
:103B2000FFFFFFFE70B50400364BDA68120A7F25EE
:103B30001540D96803220A40D868000907210140CE
:103B400001311B681B0714D52E4B186800090F2381
:103B500003400B2B00D90B23022A11D0032A43D098
:103B6000012A3AD0284A9B009858FCF7CDFA4543E1
:103B70000AE024489423C058000A853B0340E8E744
:103B80002248FCF7C1FA45431E4BDB68DB0330D506
:103B90001C4BDB685B0C1F21194001312800FCF72E
:103BA000B3FA2060174BDB68DB0125D5154BDB68CA
:103BB0005B0E0721194001312800FCF7A5FA60606F
:103BC000104BDB68DB001AD50E4BD968490F013169
:103BD0002800FCF799FAA06070BD0B4A9B0098582A
:103BE000FCF792FA4543CFE70948FCF78DFA4543C5
:103BF000CAE700232360D5E700236360E0E70023E2
:103C0000A360E9E700100240107200080024F400ED
:103C100000093D0000B585B00300802212029042E9
:103C200011D080225200904200D17DE273D820282A
:103C300044D8002800D16FE3202800D96EE3830028
:103C4000BC4AD3589F46BC4990228A58C02189005B
:103C50000A400139FF398A4214D00131FF318A42CA
:103C600021D0802149008A4201D0002057E3B24987
:103C700090228A58022108001040114200D14EE3E0
:103C800018004CE3AC4A9423D35802221000184089
:103C90001A4200D143E3A84A9423D3585B0700D4C7
:103CA00037E3FA203BE3A44B1A6880239B02100001
:103CB00018401A4200D132E3A04830E3402800D136
:103CC000EDE1802825D19C4A8823D358C0221203D5
:103CD000134080221203934200D11AE200D903E27A
:103CE000002B00D112E28022D202934200D0F9E1EF
:103CF000914A9423D3580222100018401A4200D14E
:103D00000DE38D4A9423D3585B0700D409E3FA20CE
:103D100005E3002003E380225201904200D19EE29D
:103D200010D98022D201904200D170E14ED9802278
:103D30005202904203D080229202904263D1FFF758
:103D400071FDECE28022D200904200D152E280224A
:103D5000120190420ED1784A8823D25880239B04C6
:103D6000110019401A4200D163E2002900D071E22B
:103D70000020D4E280229200904225D16E4A88230E
:103D8000D358C0221204134080221204934200D15F
:103D900025E200D90EE2002B00D11DE28022D203E1
:103DA000934200D004E2644A9423D35802221000C4
:103DB00018401A4200D1B2E25F4A9423D3585B07FD
:103DC00000D4B4E2FA20AAE20020A8E28022920104
:103DD000904216D1584A8823D358C0221205134066
:103DE00080221205934200D18EE2C0221205934236
:103DF00000D1A1E28022D204934200D166E20020E9
:103E00008DE200208BE2002089E24B4A8823D258C1
:103E1000853B1340022B1CD008D8002B16D0012B59
:103E200002D1FFF7E3F87AE2002078E2032B0BD10E
:103E3000414A9023D3580222100018401A4200D160
:103E40006DE2802000026AE2002068E2FFF7EAFCEF
:103E500065E2394B1A688023DB00100018401A42D3
:103E600000D15CE236485AE2334A8823D2587C3B80
:103E70001340082B1CD008D8002B16D0042B02D1DD
:103E8000FFF7B4F84BE2002049E20C2B0BD12A4A91
:103E90009023D3580222100018401A4200D13EE26B
:103EA000802000023BE2002039E2FFF7BBFC36E253
:103EB000214B1A688023DB00100018401A4200D101
:103EC0002DE21F482BE21C4A8823D358C02212013E
:103ED000134080221201934220D00AD8002B1AD01E
:103EE0008022D200934202D1FFF780F817E200202F
:103EF00015E2C022120193420BD10F4A9023D358EE
:103F00000222100018401A4200D108E2802000026C
:103F100005E2002003E2FFF785FC00E2064B1A6889
:103F20008023DB00100018401A4200D1F7E104485A
:103F3000F5E1C046647100080010024048E8010045
:103F40000024F400BF4A8823D358C02292001340B3
:103F5000013AFF3A934220D00AD8002B1AD0013AF6
:103F6000FF3A934202D1FFF741F8D8E10020D6E1B1
:103F7000C022920093420BD1B24A9023D35802221E
:103F8000100018401A4200D1C9E180200002C6E1A9
:103F90000020C4E1FFF746FCC1E1AA4B1A68802368
:103FA000DB00100018401A4200D1B8E1A648B6E183
:103FB000A44A8823D25838331340802B1CD008D809
:103FC000002B16D0402B02D1FFF710F8A7E10020FC
:103FD000A5E1C02B0BD19B4A9023D358022210009D
:103FE00018401A4200D19AE18020000297E1002097
:103FF00095E1FFF717FC92E1924B1A688023DB00F2
:10400000100018401A4200D189E18F4887E18D4A9B
:104010008823D358C0229205134080225205934230
:1040200015D080229205934206D0002B01D00020AB
:1040300075E1FEF7DBFF72E1824B1A688023DB003B
:10404000100018401A4200D169E17F4867E101A8D9
:10405000FFF768FD019862E17A4A8823D358C022AD
:10406000920113408022520193420AD08022920191
:10407000934209D0002B01D0002050E1FFF7D2FB82
:104080004DE1FEF7B3FF4AE16E4B1A688023DB0077
:10409000100018401A4200D141E16B483FE1694AE3
:1040A0008823D358C02292021340802252029342A6
:1040B0000AD080229202934209D0002B01D0002026
:1040C0002DE1FFF7AFFB2AE1FEF790FF27E15D4B03
:1040D0001A688023DB00100018401A4200D11EE14C
:1040E00059481CE100201AE1C022120393420BD16F
:1040F000544A9023D3580222100018401A4200D18B
:104100000DE1802000020AE1002008E1FFF78AFBB0
:1041100005E14C4B1A688023DB00100018401A425E
:1041200000D1FCE04848FAE0464A8823D358C02230
:10413000920313408022920393422ED018D8002B72
:1041400028D080225203934210D13E4A9423D35860
:104150000222100018401A4200D1E0E0394A9423AC
:10416000D3585B0700D4DFE0FA20D8E00020D6E087
:10417000C022920393420BD1324A9023D358022299
:10418000100018401A4200D1C9E080200002C6E0A9
:104190000020C4E0FFF746FBC1E02A4B1A688023E9
:1041A000DB00100018401A4200D1B8E02648B6E003
:1041B0000020B4E0C022120493420BD1214A902384
:1041C000D3580222100018401A4200D1A7E08020E4
:1041D0000002A4E00020A2E0FFF724FB9FE0194BBF
:1041E0001A688023DB00100018401A4200D196E0C4
:1041F000154894E0134A8823D25880235B041100A9
:1042000019401A4203D000290ED1002087E00D4B3F
:104210009A68E023DB011A4202D1FFF703FB7EE03C
:10422000FFF700FB40007AE001A8FFF77BFC029853
:1042300075E0044B9A68E023DB011A4206D1FFF7D0
:10424000F1FA6CE0001002400024F400FFF7EAFAF3
:10425000400064E001A8FFF765FC02985FE0374A80
:104260008823D358C022120513408022120593429E
:1042700027D0C022120593425CD08022D204934200
:1042800001D000204BE02D4B1B680222100018408B
:104290001A4244D0294B1B681B070BD5274B1A68C1
:1042A00012090F2313400B2B00D90B23244A9B0028
:1042B000985834E0214A9423D258120A853B13407F
:1042C000F1E701A8FFF72EFC029828E01B4B1B68C2
:1042D0000222100018401A4221D0184B1B681B07FD
:1042E0000BD5164B1A6812090F2313400B2B00D95C
:1042F0000B23134A9B00985811E0104A9423D2587C
:10430000120A853B1340F1E701A8FFF70BFC029866
:1043100005E0FA20C00102E0002000E0002005B026
:1043200000BDFA20C001FAE7FA20C001F7E7FA2041
:10433000C001F4E70348F2E70248F0E7001002404A
:1043400010720008006CDC02F0B5002359E08668AA
:104350005F000324BC40A643CC68BC403443846067
:10436000446894434E683609012232409A40224301
:10437000426056E0DE080836B600375805321A406B
:1043800092000F249440A7430C69944022003A43C2
:10439000325059E0052600E00026A64034003C4398
:1043A000474E1832920094513768EA433E00AE43BC
:1043B0004C68E40201D53E002E43414C26606768FC
:1043C0003E0016404C68A40201D53E002E433C4CF2
:1043D00066608426A7593E0016404C68A40301D5A8
:1043E0003E002E43364C8427E6518026A6593240A3
:1043F0004C68E40301D52A003243314D80242A5110
:1044000001330C682200DA4058D001229A4025007E
:1044100015401442F4D04E6803243440013C012C72
:1044200095D94C6803222240032A08D0C4685E0054
:104430000322B24094438A68B2402243C2604C686F
:1044400003222240022A95D004685E00032217004E
:10445000B740BC434F683A40B240224302604C68C8
:10446000C02292021442CBD09A0814001834A4003F
:10447000134EA75903241C40E4000F26A640B7435F
:10448000A026F605B04287D00E4EB0420ED00E4E9A
:10449000B0420DD00D4EB0420CD00D4EB0420BD0FC
:1044A0000C4EB04200D175E7062676E7012674E788
:1044B000022672E7032670E704266EE7F0BDC046C9
:1044C000001802400004005000080050000C00508A
:1044D000001000500014005003690B4201D001206D
:1044E00070470020FCE7002A01D08161704781629B
:1044F000FCE7000010B580239B00984212D0204BAF
:104500001B68C022D20013408022D200934234D0D4
:104510001B490A681B4B1A408023DB0013430B60C6
:10452000002010BD164B1B68C022D2001340802211
:10453000920093421DD012490A68124B1A40802300
:104540009B0013430B60104B1868322358430F49EC
:10455000FBF7DAFD013000E00138094B5B695B05D0
:1045600001D50028F8D1064B5B695B0503D4002018
:10457000D7E70020D5E70320D3E70020D1E7C046E6
:1045800000700040FFF9FFFF0800002040420F00CC
:10459000024B1868C023DB001840704700700040D1
:1045A00070B5002811DB8308134DC0339B005C59A4
:1045B00003221040C000FC3216008640B44389013B
:1045C0000A40824022435A5170BD0F230340083BEA
:1045D0009B0806339B00094A944663445C680322A7
:1045E0001040C000FC3215008540AC4389010A40F0
:1045F000824022435A60E7E700E100E000ED00E07E
:10460000013880235B0498420FD2094A5060094860
:10461000036A1B021B0AC02109060B430362002325
:10462000936007331360002070470120FCE7C04609
:1046300010E000E000ED00E010B5FFF7B1FF10BDA5
:1046400010B5FFF7DDFF10BD10B50400114B196860
:10465000002901D1012010BDFA208000FBF754FD94
:1046600001000D4B1868FBF74FFDFFF7E9FF00282D
:104670000DD1032C01D90120EDE7013000222100EA
:104680004042FFF7D9FF054B1C600020E3E7012003
:10469000E1E7C046000000200800002004000020E0
:1046A00010B50320FFF7D0FF041E02D00124200024
:1046B00010BDFEF7FFF9FAE7034A136803490968DA
:1046C0005B1813607047C0460C02002000000020F9
:1046D000014B18687047C0460C02002070B50400FA
:1046E000FFF7F6FF0500631C02D0044B1B68E418BB
:1046F000FFF7EEFF401BA042FAD370BD0000002080
:1047000010B5041E60D04123C35C002B48D0412368
:104710002422E2542268136801218B4313606368EA
:1047200022682A490B4013612268936828490B408C
:104730009360E368012B39D0A168226884231B02AF
:104740000B439360E368022B37D0226853682149FA
:104750000B405360226851681F4B0B435360226823
:10476000D3681B490B40D360236962691343A26974
:10477000120221681343CB60E369216A22680B436C
:1047800013602268136801210B43136000236364E4
:1047900041221F31A15423630132A354002010BDD4
:1047A00040330022C254FEF70BF8B0E7A16822683C
:1047B00080231B020B439360C4E722685168802367
:1047C0001B010B435360C5E70120E8E7FFFFFFF043
:1047D000FF7FFFFFFFF7FFFF00800002F0B54123DE
:1047E000C35C202B20D12033C35C012B1ED040247E
:1047F000012202554125242343550668336893431B
:104800003360066833680A4F3B403360066833689C
:104810000B43336001680B6813430B60202343553F
:10482000002303550020F0BD0220FCE70220FAE738
:10483000FFEFFFFFF0B54123C35C202B1ED12033D7
:10484000C35C012B1CD040240122025541252423A6
:104850004355066833689343336006683368094FED
:104860003B4009021943316001680B6813430B6038
:1048700020234355002303550020F0BD0220FCE710
:104880000220FAE7FFF0FFFF10B50B4AD3682021A2
:104890008B43D360FFF71CFF0400074BDB689B06CC
:1048A00008D4FFF715FF001BFA239B009842F4D9A8
:1048B000032000E0002010BD0028004010B50E4B82
:1048C000DB685B0601D5002010BD0B4AD368802150
:1048D0000B43D360FFF7FCFE0400074BDB685B066D
:1048E00008D4FFF7F5FE001BFA239B009842F4D989
:1048F0000320E9E70020E7E70028004070B5041E28
:104900005ED02D23C35C002B15D02D230222E25450
:104910002C4BC8325A62773A5A622000FFF7CEFF1A
:10492000051E0ED0274BFF225A622D23FB3AE2547C
:104930000125280070BD2C330022C254FDF7ACFFC6
:10494000E3E7204B9A6920490A409A6199696268B5
:1049500020690243A06902430A439A61E268A168A0
:1049600009040A431A61DA6818490A40616AA06AB0
:1049700001430A43DA60DA6880218A43DA609B697E
:104980009B0610D50F498B69DB00DB08226AE069C2
:1049900002436069024313438B61FF234B62D23BA6
:1049A0000122E254C5E72000FFF76EFF0028E9D09E
:1049B000044BFF225A622D23FB3AE2540125B8E74B
:1049C0000125B6E700280040BFFF8FFBFFE0FFFF97
:1049D000F8B506000C0015002C23C35C012B50D049
:1049E0002C230122C25401330132C254264B9B694D
:1049F0005B0515D5FFF76CFE0700234BDB685B07F3
:104A00000ED5FFF765FEC01BFA2292009042F4D942
:104A10002D230322F254013B0022F25403202FE005
:104A2000194A936919490B409361FFF751FE07003A
:104A3000154BDB685B070ED4FFF74AFEC01BFA225A
:104A400092009042F4D92D230322F254013B00221C
:104A5000F254032014E00C4B9A6907218A432A433D
:104A60009A615C6199698022D2000A439A61FF22AF
:104A70005A622D23FE3AF254013B0022F2540020E8
:104A8000F8BD0220FCE7C04600280040FFFBFFFF06
:104A9000F0B5D6464F464646C0B582B006000D007A
:104AA00090461F00FFF714FE0A9B181A8146B9446E
:104AB000FFF70EFE82462C4B1B685B011B0D4A461E
:104AC0005343019333689C682C40641B63425C41F0
:104AD000444542D07B1CF5D0FFF7FAFD5346C01A7F
:104AE000484508D2019A002A00D04A46019B013B62
:104AF00001939146E6E732685368E0218B435360A7
:104B0000726882235B009A420CD0B26A80239B01B8
:104B10009A4216D05D230122F254013B0022F25446
:104B200003201BE0B36880221202934203D080224C
:104B3000D2009342E9D13268136840218B4313605D
:104B4000E3E73268136809490B4013603268116863
:104B500080239B010B431360DCE7002002B0E0BC24
:104B6000BA46B146A846F0BD08000020FFDFFFFFAF
:104B7000F0B5DE4657464E464546E0B583B00700E1
:104B80000D00160098466B460022DA70FFF7A0FD74
:104B90000C9B181A40448146FFF79AFD82463B68F9
:104BA0009B46344B1B689A00D218D3009B1A1B0DEE
:104BB0004A465343019302E04346013311D13B6817
:104BC0009C682C40B4424DD0C023DB009D42F3D101
:104BD000002EF1D15B461B7BDBB26A46D370D378E3
:104BE000EAE7FFF775FD5346C01A484508D2019A17
:104BF000002A00D04A46019B013B01939146DEE723
:104C00003A685368E0218B4353607A6882235B00E3
:104C10009A420CD0BA6A80239B019A4216D05D2337
:104C20000122FA54013B0022FA5403201BE0BB6826
:104C300080221202934203D08022D2009342E9D113
:104C40003A68136840218B431360E3E73A681368BE
:104C500009490B4013603A68116880239B010B439C
:104C60001360DCE7002003B0F0BCBB46B246A946A7
:104C7000A046F0BD08000020FFDFFFFF70B582B046
:104C800004000D001600C02100922B0000224901F3
:104C9000FFF76EFF002818D100962B00002280211C
:104CA0002000FFF7F5FE002816D1C02100962B004A
:104CB0000022C9002000FFF75BFF00280AD0236E06
:104CC000202213432366032004E0236E2022134393
:104CD0002366032002B070BD236E20221343236697
:104CE0000320F7E770B582B004000D00160042689B
:104CF00082235B009A420FD000962B000022802175
:104D00002000FFF7C5FE002815D1626882235B00F2
:104D10009A4216D002B070BD83688022120293427C
:104D200003D08022D2009342E6D12268136840214A
:104D30008B431360E0E7236E202213432366032096
:104D4000E8E7A36880221202934203D08022D200B7
:104D50009342DFD1C02100962B000022C900200021
:104D6000FFF706FF0028D5D0236E202213432366C9
:104D70000320CFE770B5041E00D173E0436A002B17
:104D800007D142680533FF339A4205D00023C3613F
:104D900002E00023036143610023A3625D33E35C0F
:104DA000002B55D05D230222E25422681368402173
:104DB0008B431360E368E022D20093424FD9002274
:104DC000F02109018B4205D0E021C9008B4201D0BE
:104DD0000023A3626368822149000B40A1688420FC
:104DE000000201400B432069022101400B4360692E
:104DF000012108400343A0698025AD0028400343FA
:104E0000E569382028400343256A80202840034371
:104E1000A06A8025AD012840256803432B60608B84
:104E200004230340656A102028400343656B082073
:104E300028400343E068F0252D0128400343206803
:104E400013434360002323665D33E154002070BDAB
:104E50005C330022E2542000FDF778FDA2E78022B7
:104E60005201ADE70120F2E7F0B5CE4600B584B0BF
:104E70000400019191461D005C23C35C012B00D10D
:104E8000CBE05C230122C254FFF722FC06005D2325
:104E9000E35CDFB2012B00D0B6E00199002900D11C
:104EA000B3E04B46002B00D1AFE05D230322E25478
:104EB00000232366A1634A46A287E2872364442233
:104EC000A3520232A3522365E364A26880231B022B
:104ED0009A421ED0226813685B0603D413684021EF
:104EE0000B431360E268E023DB009A423ED963681B
:104EF000002B02D04B46012B20D1A26B23681288D5
:104F0000DA60A36B0233A363E38F013B9BB2E387B9
:104F100014E02268136840218B43136022681168F3
:104F20008023DB010B431360D4E7FFF7D1FB801B29
:104F3000A84201D36B1C14D1002D12D0E18F89B28D
:104F4000002946D0226893689B07EED5A36B1B8887
:104F5000D360A36B0233A363E38F013B9BB2E38770
:104F6000ECE75D230122E25403274EE06368002B47
:104F700002D04B46012B14D1A26B236812781A730E
:104F8000A36B0133A363E38F013B9BB2E38708E08C
:104F9000FFF79EFB801BA84201D36B1C14D1002D90
:104FA00012D0E18F89B2002913D0226893689B0741
:104FB000EED5A36B1B781373A36B0133A363E38F4D
:104FC000013B9BB2E387ECE75D230122E254032718
:104FD0001BE0320029002000FFF750FE002801D01E
:104FE00020232366A368002B06D103932368DA6885
:104FF00003929B680393039B236E002B05D15D33C3
:105000000122E254002700E002275C230022E25440
:10501000380004B080BCB946F0BD0227F8E70000B4
:10502000F0B583B00400009101921E00089D5C233E
:10503000C35C012B00D11EE15C230122C254FFF7A7
:1050400047FB07005D23E35CD9B26268012B0BD0FC
:1050500082235B009A4200D0FBE0A368002B00D0C3
:10506000FDE0042900D0FCE0009B002B00D1FAE019
:10507000019B002B00D1F8E0002E00D1F7E05D236A
:10508000E35C042B02D05D230522E2540023236657
:10509000019A22644622A652023AA652009AA263BC
:1050A000E687A687E3642365E268E023DB009A4293
:1050B00023D92268536871490B40536023681A68EA
:1050C000520603D41A6840210A431A60E268E023BA
:1050D000DB009A4258D96368002B01D0012E0AD117
:1050E000A26B23681288DA60A36B0233A363E38F99
:1050F000013B9BB2E38701262DE0226851688023A3
:105100005B010B435360D9E7A36B1B88D360A36B90
:105110000233A363E38F013B9BB2E387002622683F
:105120009368DB0710D54623E35A9BB2002B0BD0C4
:10513000D268236C1A80236C023323644622A35A5C
:10514000013B9BB2A3520126FFF7C2FAC01BA84243
:1051500001D36B1C13D1E38F9BB2002B04D14633D8
:10516000E35A9BB2002B63D0226893689B07D6D585
:10517000E38F9BB2002BD2D0012ED0D1C4E75D23A8
:105180000122E254032065E06368002B01D0012E68
:105190000AD1A26B236812781A73A36B0133A3633D
:1051A000E38F013B9BB2E38701261DE022689368F1
:1051B000DB0710D54623E35A9BB2002B0BD0236CA0
:1051C000127B1A70236C013323644622A35A013BDD
:1051D0009BB2A3520126FFF77BFAC01BA84201D362
:1051E0006B1C20D1002D1ED0E38F9BB2002B04D16D
:1051F0004633E35A9BB2002B1AD0226893689B0770
:10520000D4D5E38F9BB2002BD0D0012ECED1A36B8F
:105210001B781373A36B0133A363E38F013B9BB232
:10522000E3870026C2E75D230122E254032011E058
:105230003A0029002000FFF721FD002802D020239A
:1052400023660120236E002B13D15D330122E2542B
:1052500000E002205C230022E25403B0F0BD0220F3
:10526000F8E70220F6E70120F4E70120F2E7012049
:10527000F0E70120EEE70220EFE7C046FFEFFFFF77
:10528000F0B5CE4600B584B00400039116001D00B1
:105290005D23C35CDFB2012B00D0BAE04268043367
:1052A000FF339A423DD05C23E35C012B00D1B9E08F
:1052B0005C230122E254FFF70BFA8146039900298F
:1052C00000D1A7E0002E00D1A4E05D230422E25427
:1052D0000023236621644032A6520232A652A36301
:1052E000A387E387E3642365E268E023DB009A4257
:1052F00024D9226853684C490B405360A26880232C
:105300001B029A4221D0226813685B0603D41368FB
:1053100040210B431360E268E023DB009A4229D965
:105320004CE08368002BBED15D330422C25400954B
:1053300033000A00FFF774FE07006EE02268516830
:1053400080235B010B435360D8E722681368402138
:105350008B4313602268136834490B401360D2E713
:10536000FFF7B6F94B46C01AA84201D36B1C16D101
:10537000002D14D04623E35A9BB2002B38D022686C
:105380009368DB07ECD5236C127B1A70236C013316
:1053900023644622A35A013B9BB2A352EAE75D2352
:1053A0000122E254032735E0FFF792F94B46C01A79
:1053B000A84201D36B1C16D1002D14D04623E25A0B
:1053C00092B2002A14D022689368DB07ECD5D26829
:1053D000236C1A80236C023323644622A35A013BB8
:1053E0009BB2A352EAE75D230122E254032711E0B6
:1053F0004A4629002000FFF775FC002801D0202331
:105400002366236E002B05D15D330122E254002771
:1054100000E002275C230022E254380004B080BC84
:10542000B946F0BD0227F8E7FFEFFFFFFFBFFFFF20
:1054300030B5EFF31084012282F3108801680B6805
:10544000124D2B400B6084F31088EFF3108182F330
:105450001088026893680E4C2340936081F3108893
:10546000C36E012B06D08C232022C2500023C366BA
:10547000436730BDEFF3108183F31088026813682F
:105480001024A343136081F31088ECE7DFFEFFFFD5
:10549000FEFFFFEFF8B5040001688368026913435B
:1054A00042691343C26913430A686D4802401343BB
:1054B0000B60226853686B490B40E1680B435360F3
:1054C000A1692268684B9A4207D0684B9A4204D07F
:1054D000674B9A4201D0236A194393686548034099
:1054E0000B4393602268D36A0F218B43616A0B439D
:1054F000D3622368604A934215D0604A93423DD0FC
:105500005F4A93423CD05F4A93423CD0564A934212
:105510003CD0564A93423BD0554A934201D000209A
:1055200002E0042000E001204F4A934232D04F4A6B
:1055300093422FD04E4A93422CD0E26980231B0223
:105540009A4255D0FEF766FB002800D184E0626ADB
:105550004D4B5200D15AFAF7D7FD61684B08C0187D
:10556000FAF7D2FD0200103A484B9A4200D975E092
:1055700023680004000CD86000205AE00220D3E722
:1055800080204002D0E780208002CDE71020CBE7CA
:105590000820C9E7FEF73EFB051E49D0626A3A4B78
:1055A0005200D75A3900FAF7AFFD666873009B19AD
:1055B000834247D83303834246D33A00002328006E
:1055C0000021FAF773FF050E0B022B43020270084D
:1055D00000218018594132000023FAF767FF2C4B55
:1055E000C2182C4B9A4231D82368D860002020E0A2
:1055F000FEF710FB00282BD0626A234B5200D15AD1
:10560000FAF782FD400061684B08C018FAF77CFD8C
:105610000200103A1D4B9A421CD882B20F239A43C3
:105620004008083B034013432268D360002000E099
:10563000002001236A22A352023AA3520023636787
:10564000A367F8BD0120F4E70120F2E70120F0E7AD
:105650000020EEE70120ECE70020EAE70120E8E780
:10566000F369FFCFFFCFFFFF0080004000840040C0
:10567000008C0040FFF4FF1100380140004400405E
:1056800000480040004C0040E8710008EFFF0000B7
:1056900000FDFFFFFFFC0F00836A1B0706D50268B1
:1056A00053682C490B40816B0B435360836ADB07C3
:1056B00006D50268536828490B40C16A0B43536002
:1056C000836A9B0706D50268536824490B40016B27
:1056D0000B435360836A5B0706D502685368204911
:1056E0000B40416B0B435360836ADB0606D50268AF
:1056F00093681C490B40C16B0B439360836A9B0604
:1057000006D50268936818490B40016C0B439360FF
:10571000836A5B060BD50268536814490B40416CE1
:105720000B435360426C80235B039A420AD0836A26
:105730001B0606D5026853680D490B40C16C0B432C
:1057400053607047026853680A490B40816C0B43F1
:105750005360ECE7FF7FFFFFFFFFFDFFFFFFFEFF52
:10576000FFFFFBFFFFEFFFFFFFDFFFFFFFFFEFFF8D
:10577000FFFFF7FFFFFF9FFFF8B5CE46474680B516
:1057800006000D0017009946089B98463368DC69AF
:105790002C40641B63425C41BC4233D1434601331D
:1057A000F4D0FEF795FF4B46C01A40452FD843462C
:1057B000002B2ED0326813685B07E7D5802DE5D02B
:1057C000402DE3D0D3691B0710D4D3691B05DDD569
:1057D00080231B0113623000FFF72AFE9023202252
:1057E000F2500C3B0022F25403200CE00824146217
:1057F0003000FFF71DFE9023F4500C3B0022F254C2
:10580000012000E00020C0BCB946B046F8BD03202E
:10581000F9E70320F7E7000030B583B004009023D8
:105820000022C250FEF754FF050023681B681B07C7
:1058300010D423681B685B072BD420238822A35035
:105840000432A3500023E3662367083AA3540020E0
:1058500003B030BD8021234B009303000022890355
:105860002000FFF789FF0028E3D0EFF31081012328
:1058700083F310882268136880208343136081F3C8
:10588000108888232022E250043B0022E2547D3815
:10589000DEE78021134B00932B000022C903200078
:1058A000FFF76AFF0028C8D0EFF31080012282F3CF
:1058B000108821680B680C4D2B400B6080F310881A
:1058C000EFF3108082F3108821688B6893438B601C
:1058D00080F310888C231F32E250083B0022E254F0
:1058E0000320B5E7FFFFFF01DFFEFFFF10B5041E39
:1058F00030D08823C358002B22D088232422E250A2
:105900002268136801218B431360A36A002B1DD109
:105910002000FFF7BFFD012811D0226853680E490F
:105920000B405360226893682A218B43936022685E
:10593000136829390B4313602000FFF76DFF10BD7A
:1059400084330022C254FDF76BF8D6E72000FFF73E
:10595000A3FEDDE70120F2E7FFB7FFFFF8B5040083
:10596000436E002B05D101336A228352023A8352DF
:10597000F8BD026895686D0E07231D409268520FAE
:105980001340084FF85CC000074EF15CFAF746FC84
:105990006A23E052785DC000715DFAF73FFC68232E
:1059A000E052E5E7087200080072000870B5842331
:1059B000C35C012B15D08424012606558825242399
:1059C0004351026813681168B1431160064A1340DD
:1059D0000022426601680B602023435102550020DB
:1059E00070BD0220FCE7C046FFFFFFDFF8B50400F2
:1059F0000A008423C35C012B1BD084250120605541
:105A000088262423A35123681F68196881431960DD
:105A100020688368DB00D908114381602000FFF70C
:105A20009DFF23681F602023A3510023635500209E
:105A3000F8BD0220FCE70000F8B504000B0084224A
:105A4000825C012A1BD084250120605588262422EF
:105A5000A251226817681168814311602268916819
:105A600008480140194391602000FFF777FF236841
:105A70001F602023A351002363550020F8BD02209E
:105A8000FCE7C046FFFFFFF10D4B802212059A6034
:105A90000C4A8023D358DB0310D5126AFF2313402E
:105AA000CC2B0BD0074B1A6AFF231340AA2B05D02F
:105AB000044A11688023DB020B4313607047C04621
:105AC00000ED00E00020024070470100002007E0E8
:105AD00083001B185B00501C08601078C018303819
